{
  "abi": [
    {
      "inputs": [
        {
          "internalType": "address payable",
          "name": "_owner",
          "type": "address"
        },
        {
          "internalType": "address",
          "name": "_dxSwapFactory",
          "type": "address"
        },
        {
          "internalType": "address",
          "name": "_dxSwapRouter",
          "type": "address"
        },
        {
          "internalType": "address",
          "name": "_uniswapFactory",
          "type": "address"
        },
        {
          "internalType": "address",
          "name": "_uniswapRouter",
          "type": "address"
        },
        {
          "internalType": "address",
          "name": "_WETH",
          "type": "address"
        },
        {
          "internalType": "contract OracleCreator",
          "name": "_oracleCreater",
          "type": "address"
        }
      ],
      "stateMutability": "nonpayable",
      "type": "constructor"
    },
    {
      "anonymous": false,
      "inputs": [
        {
          "indexed": true,
          "internalType": "uint256",
          "name": "_orderIndex",
          "type": "uint256"
        }
      ],
      "name": "ExecutedOrder",
      "type": "event"
    },
    {
      "anonymous": false,
      "inputs": [
        {
          "indexed": true,
          "internalType": "uint256",
          "name": "_orderIndex",
          "type": "uint256"
        },
        {
          "indexed": true,
          "internalType": "uint8",
          "name": "_action",
          "type": "uint8"
        }
      ],
      "name": "NewOrder",
      "type": "event"
    },
    {
      "anonymous": false,
      "inputs": [
        {
          "indexed": true,
          "internalType": "uint256",
          "name": "_orderIndex",
          "type": "uint256"
        }
      ],
      "name": "WithdrawnExpiredOrder",
      "type": "event"
    },
    {
      "inputs": [],
      "name": "BOUNTY",
      "outputs": [
        {
          "internalType": "uint256",
          "name": "",
          "type": "uint256"
        }
      ],
      "stateMutability": "view",
      "type": "function"
    },
    {
      "inputs": [
        {
          "internalType": "address",
          "name": "token",
          "type": "address"
        },
        {
          "internalType": "uint256",
          "name": "amount",
          "type": "uint256"
        }
      ],
      "name": "ERC20Withdraw",
      "outputs": [],
      "stateMutability": "nonpayable",
      "type": "function"
    },
    {
      "inputs": [
        {
          "internalType": "uint256",
          "name": "amount",
          "type": "uint256"
        }
      ],
      "name": "ETHWithdraw",
      "outputs": [],
      "stateMutability": "nonpayable",
      "type": "function"
    },
    {
      "inputs": [],
      "name": "GAS_ORACLE_UPDATE",
      "outputs": [
        {
          "internalType": "uint256",
          "name": "",
          "type": "uint256"
        }
      ],
      "stateMutability": "view",
      "type": "function"
    },
    {
      "inputs": [
        {
          "internalType": "uint256",
          "name": "orderIndex",
          "type": "uint256"
        }
      ],
      "name": "GetOrderDetails",
      "outputs": [
        {
          "components": [
            {
              "internalType": "uint8",
              "name": "action",
              "type": "uint8"
            },
            {
              "internalType": "address",
              "name": "tokenA",
              "type": "address"
            },
            {
              "internalType": "address",
              "name": "tokenB",
              "type": "address"
            },
            {
              "internalType": "uint256",
              "name": "amountA",
              "type": "uint256"
            },
            {
              "internalType": "uint256",
              "name": "amountB",
              "type": "uint256"
            },
            {
              "internalType": "uint256",
              "name": "liquidity",
              "type": "uint256"
            },
            {
              "internalType": "uint256",
              "name": "priceTolerance",
              "type": "uint256"
            },
            {
              "internalType": "uint256",
              "name": "minReserveA",
              "type": "uint256"
            },
            {
              "internalType": "uint256",
              "name": "minReserveB",
              "type": "uint256"
            },
            {
              "internalType": "address",
              "name": "oraclePair",
              "type": "address"
            },
            {
              "internalType": "uint256",
              "name": "deadline",
              "type": "uint256"
            },
            {
              "internalType": "uint256",
              "name": "maxWindowTime",
              "type": "uint256"
            },
            {
              "internalType": "uint256",
              "name": "oracleId",
              "type": "uint256"
            },
            {
              "internalType": "address",
              "name": "factory",
              "type": "address"
            },
            {
              "internalType": "bool",
              "name": "executed",
              "type": "bool"
            }
          ],
          "internalType": "struct DXswapRelayer.Order",
          "name": "",
          "type": "tuple"
        }
      ],
      "stateMutability": "view",
      "type": "function"
    },
    {
      "inputs": [],
      "name": "PARTS_PER_MILLION",
      "outputs": [
        {
          "internalType": "uint256",
          "name": "",
          "type": "uint256"
        }
      ],
      "stateMutability": "view",
      "type": "function"
    },
    {
      "inputs": [],
      "name": "PROVISION",
      "outputs": [
        {
          "internalType": "uint8",
          "name": "",
          "type": "uint8"
        }
      ],
      "stateMutability": "view",
      "type": "function"
    },
    {
      "inputs": [],
      "name": "REMOVAL",
      "outputs": [
        {
          "internalType": "uint8",
          "name": "",
          "type": "uint8"
        }
      ],
      "stateMutability": "view",
      "type": "function"
    },
    {
      "inputs": [],
      "name": "WETH",
      "outputs": [
        {
          "internalType": "address",
          "name": "",
          "type": "address"
        }
      ],
      "stateMutability": "view",
      "type": "function"
    },
    {
      "inputs": [],
      "name": "dxSwapFactory",
      "outputs": [
        {
          "internalType": "address",
          "name": "",
          "type": "address"
        }
      ],
      "stateMutability": "view",
      "type": "function"
    },
    {
      "inputs": [],
      "name": "dxSwapRouter",
      "outputs": [
        {
          "internalType": "address",
          "name": "",
          "type": "address"
        }
      ],
      "stateMutability": "view",
      "type": "function"
    },
    {
      "inputs": [
        {
          "internalType": "uint256",
          "name": "orderIndex",
          "type": "uint256"
        }
      ],
      "name": "executeOrder",
      "outputs": [],
      "stateMutability": "nonpayable",
      "type": "function"
    },
    {
      "inputs": [],
      "name": "orderCount",
      "outputs": [
        {
          "internalType": "uint256",
          "name": "",
          "type": "uint256"
        }
      ],
      "stateMutability": "view",
      "type": "function"
    },
    {
      "inputs": [
        {
          "internalType": "address",
          "name": "tokenA",
          "type": "address"
        },
        {
          "internalType": "address",
          "name": "tokenB",
          "type": "address"
        },
        {
          "internalType": "uint256",
          "name": "amountA",
          "type": "uint256"
        },
        {
          "internalType": "uint256",
          "name": "amountB",
          "type": "uint256"
        },
        {
          "internalType": "uint256",
          "name": "priceTolerance",
          "type": "uint256"
        },
        {
          "internalType": "uint256",
          "name": "minReserveA",
          "type": "uint256"
        },
        {
          "internalType": "uint256",
          "name": "minReserveB",
          "type": "uint256"
        },
        {
          "internalType": "uint256",
          "name": "maxWindowTime",
          "type": "uint256"
        },
        {
          "internalType": "uint256",
          "name": "deadline",
          "type": "uint256"
        },
        {
          "internalType": "address",
          "name": "factory",
          "type": "address"
        }
      ],
      "name": "orderLiquidityProvision",
      "outputs": [
        {
          "internalType": "uint256",
          "name": "orderIndex",
          "type": "uint256"
        }
      ],
      "stateMutability": "payable",
      "type": "function"
    },
    {
      "inputs": [
        {
          "internalType": "address",
          "name": "tokenA",
          "type": "address"
        },
        {
          "internalType": "address",
          "name": "tokenB",
          "type": "address"
        },
        {
          "internalType": "uint256",
          "name": "liquidity",
          "type": "uint256"
        },
        {
          "internalType": "uint256",
          "name": "amountA",
          "type": "uint256"
        },
        {
          "internalType": "uint256",
          "name": "amountB",
          "type": "uint256"
        },
        {
          "internalType": "uint256",
          "name": "priceTolerance",
          "type": "uint256"
        },
        {
          "internalType": "uint256",
          "name": "minReserveA",
          "type": "uint256"
        },
        {
          "internalType": "uint256",
          "name": "minReserveB",
          "type": "uint256"
        },
        {
          "internalType": "uint256",
          "name": "maxWindowTime",
          "type": "uint256"
        },
        {
          "internalType": "uint256",
          "name": "deadline",
          "type": "uint256"
        },
        {
          "internalType": "address",
          "name": "factory",
          "type": "address"
        }
      ],
      "name": "orderLiquidityRemoval",
      "outputs": [
        {
          "internalType": "uint256",
          "name": "orderIndex",
          "type": "uint256"
        }
      ],
      "stateMutability": "nonpayable",
      "type": "function"
    },
    {
      "inputs": [],
      "name": "owner",
      "outputs": [
        {
          "internalType": "address payable",
          "name": "",
          "type": "address"
        }
      ],
      "stateMutability": "view",
      "type": "function"
    },
    {
      "inputs": [],
      "name": "uniswapFactory",
      "outputs": [
        {
          "internalType": "address",
          "name": "",
          "type": "address"
        }
      ],
      "stateMutability": "view",
      "type": "function"
    },
    {
      "inputs": [],
      "name": "uniswapRouter",
      "outputs": [
        {
          "internalType": "address",
          "name": "",
          "type": "address"
        }
      ],
      "stateMutability": "view",
      "type": "function"
    },
    {
      "inputs": [
        {
          "internalType": "uint256",
          "name": "orderIndex",
          "type": "uint256"
        }
      ],
      "name": "updateOracle",
      "outputs": [],
      "stateMutability": "nonpayable",
      "type": "function"
    },
    {
      "inputs": [
        {
          "internalType": "uint256",
          "name": "orderIndex",
          "type": "uint256"
        }
      ],
      "name": "withdrawExpiredOrder",
      "outputs": [],
      "stateMutability": "nonpayable",
      "type": "function"
    },
    {
      "stateMutability": "payable",
      "type": "receive"
    }
  ],
  "evm": {
    "bytecode": {
      "linkReferences": {},
      "object": "6101e0604052620291ac608052620f424060a052662386f26fc1000060c052600160f81b60e052600160f91b610100523480156200003c57600080fd5b50604051620037a3380380620037a38339810160408190526200005f91620000c4565b606096871b6001600160601b03199081166101205295871b86166101405293861b85166101605291851b841661018052841b83166101a05290921b166101c052600080546001600160a01b0319166001600160a01b0390921691909117905562000187565b600080600080600080600060e0888a031215620000df578283fd5b8751620000ec816200016e565b6020890151909750620000ff816200016e565b604089015190965062000112816200016e565b606089015190955062000125816200016e565b608089015190945062000138816200016e565b60a08901519093506200014b816200016e565b60c08901519092506200015e816200016e565b8091505092959891949750929550565b6001600160a01b03811681146200018457600080fd5b50565b60805160a05160c05160e05160f81c6101005160f81c6101205160601c6101405160601c6101605160601c6101805160601c6101a05160601c6101c05160601c6134936200031060003980610a0652806110f15280611f985280612218528061228c5280612430528061255b52806125aa5280612618528061266752508061055452508061057852806105fd52806111525280611f38525080610d6c52806110cd52806122b452806122df528061231a52806123bc52806123e852806124585280612482528061253352508061053052806105c25280610a2f528061105c52806111175280611efd52508061037c5280610457528061048752806104b252806106585280610bef52806111ad5280611b775280611bb95280611c105280611c5352508061050c52806107d75280610b925280611027525080610fe8528061148b528061169b52806118c15250806119bc5280611be35250806107325280610f265280610f7b528061127b5280611c7e52806120ea52508061059c52806119e052506134936000f3fe6080604052600436106101235760003560e01c80639dd9b5f1116100a0578063c58125bc11610064578063c58125bc146102c6578063d081f2b8146102e6578063d530f4e7146102fb578063ec6ea8121461031b578063ffc5ea0d146103305761012a565b80639dd9b5f114610254578063ad5c464814610269578063b7345d2f1461027e578063b964930a14610291578063c23c1c9f146102a65761012a565b80638bdb2afa116100e75780638bdb2afa146101d55780638c0a63bf146101ea5780638d091c34146101ff5780638da5cb5b1461021f57806394f61134146102345761012a565b80632453ffa81461012f5780632cb2db611461015a5780634860bfe51461017c578063659bd06f1461019e578063735de9f7146101c05761012a565b3661012a57005b600080fd5b34801561013b57600080fd5b5061014461035d565b60405161015191906133e6565b60405180910390f35b34801561016657600080fd5b5061017a610175366004612af9565b610363565b005b34801561018857600080fd5b5061019161050a565b6040516101519190613425565b3480156101aa57600080fd5b506101b361052e565b6040516101519190612c49565b3480156101cc57600080fd5b506101b3610552565b3480156101e157600080fd5b506101b3610576565b3480156101f657600080fd5b5061014461059a565b34801561020b57600080fd5b5061014461021a3660046129bf565b6105be565b34801561022b57600080fd5b506101b3610bed565b34801561024057600080fd5b5061017a61024f366004612af9565b610c11565b34801561026057600080fd5b506101b36110cb565b34801561027557600080fd5b506101b36110ef565b61014461028c36600461292f565b611113565b34801561029d57600080fd5b506101916118bf565b3480156102b257600080fd5b5061017a6102c1366004612af9565b6118e3565b3480156102d257600080fd5b5061017a6102e1366004612af9565b611b6c565b3480156102f257600080fd5b50610144611be1565b34801561030757600080fd5b5061017a610316366004612a5a565b611c05565b34801561032757600080fd5b50610144611c7c565b34801561033c57600080fd5b5061035061034b366004612af9565b611ca0565b6040516101519190613308565b60015481565b6000818152600260205260409020336001600160a01b037f000000000000000000000000000000000000000000000000000000000000000016146103c25760405162461bcd60e51b81526004016103b990612f7a565b60405180910390fd5b806009015442116103e55760405162461bcd60e51b81526004016103b990613158565b600c810154600160a01b900460ff16156104115760405162461bcd60e51b81526004016103b990612fe6565b8054600182015460028301546003840154600c8501805460ff60a01b1916600160a01b1790556001600160a01b036101009094048416939290921691836104815761047c7f000000000000000000000000000000000000000000000000000000000000000083611d80565b6104ac565b6104ac847f000000000000000000000000000000000000000000000000000000000000000084611e12565b6104d7837f000000000000000000000000000000000000000000000000000000000000000083611e12565b60405186907f3f9d01b8340245ea975087559a7911155f1b300f5b19aa35fcc67d4adf962c8590600090a2505050505050565b7f000000000000000000000000000000000000000000000000000000000000000081565b7f000000000000000000000000000000000000000000000000000000000000000081565b7f000000000000000000000000000000000000000000000000000000000000000081565b7f000000000000000000000000000000000000000000000000000000000000000081565b7f000000000000000000000000000000000000000000000000000000000000000081565b60007f00000000000000000000000000000000000000000000000000000000000000006001600160a01b0316826001600160a01b0316148061063157507f00000000000000000000000000000000000000000000000000000000000000006001600160a01b0316826001600160a01b0316145b61064d5760405162461bcd60e51b81526004016103b99061301d565b336001600160a01b037f000000000000000000000000000000000000000000000000000000000000000016146106955760405162461bcd60e51b81526004016103b990612f7a565b8a6001600160a01b03168c6001600160a01b031614156106c75760405162461bcd60e51b81526004016103b990612eca565b8a6001600160a01b03168c6001600160a01b0316106106f85760405162461bcd60e51b81526004016103b990612f38565b6000891180156107085750600088115b8015610714575060008a115b6107305760405162461bcd60e51b81526004016103b990613111565b7f00000000000000000000000000000000000000000000000000000000000000008711156107705760405162461bcd60e51b81526004016103b990612d7f565b824211156107905760405162461bcd60e51b81526004016103b99061319b565b601e84116107b05760405162461bcd60e51b81526004016103b990612de2565b60006107bd8d8d85611ef9565b90506107c7612040565b9150604051806101e001604052807f000000000000000000000000000000000000000000000000000000000000000060ff1681526020018e6001600160a01b031681526020018d6001600160a01b031681526020018b81526020018a81526020018c8152602001898152602001888152602001878152602001826001600160a01b0316815260200185815260200186815260200160008152602001846001600160a01b03168152602001600015158152506002600084815260200190815260200160002060008201518160000160006101000a81548160ff021916908360ff16021790555060208201518160000160016101000a8154816001600160a01b0302191690836001600160a01b0316021790555060408201518160010160006101000a8154816001600160a01b0302191690836001600160a01b03160217905550606082015181600201556080820151816003015560a0820151816004015560c0820151816005015560e0820151816006015561010082015181600701556101208201518160080160006101000a8154816001600160a01b0302191690836001600160a01b03160217905550610140820151816009015561016082015181600a015561018082015181600b01556101a082015181600c0160006101000a8154816001600160a01b0302191690836001600160a01b031602179055506101c082015181600c0160146101000a81548160ff02191690831515021790555090505060006001600160a01b03168d6001600160a01b031614610a04578c610a26565b7f00000000000000000000000000000000000000000000000000000000000000005b9c506000610a557f00000000000000000000000000000000000000000000000000000000000000008f8f61204d565b9050600080826001600160a01b0316630902f1ac6040518163ffffffff1660e01b815260040160606040518083038186803b158015610a9357600080fd5b505afa158015610aa7573d6000803e3d6000fd5b505050506040513d601f19601f82011682018060405250810190610acb9190612aa5565b506001600160701b031691506001600160701b031691506000610af18e8e85858d6120bd565b6000546040516306649d6760e01b81529192506001600160a01b0316906306649d6790610b2490849089906004016133ef565b602060405180830381600087803b158015610b3e57600080fd5b505af1158015610b52573d6000803e3d6000fd5b505050506040513d601f19601f82011682018060405250810190610b769190612b11565b600087815260026020526040808220600b0192909255905160ff7f0000000000000000000000000000000000000000000000000000000000000000169188917f03d87a0db9f255a83b85d64d1e31d04ca94ac564c50b44f6ba9d52a731e441dc9190a350505050509b9a5050505050505050505050565b7f000000000000000000000000000000000000000000000000000000000000000081565b60008181526002602052604090206001548210610c405760405162461bcd60e51b81526004016103b990613054565b600c810154600160a01b900460ff1615610c6c5760405162461bcd60e51b81526004016103b990612fe6565b600054600b8201546040516325fa700360e01b81526001600160a01b03909216916325fa700391610c9f916004016133e6565b60206040518083038186803b158015610cb757600080fd5b505afa158015610ccb573d6000803e3d6000fd5b505050506040513d601f19601f82011682018060405250810190610cef9190612a85565b610d0b5760405162461bcd60e51b81526004016103b9906131d2565b8060090154421115610d2f5760405162461bcd60e51b81526004016103b99061319b565b8054600182015460008054600b8501546101009094046001600160a01b039081169493811693911690634023282b908515610d6a5785610dfb565b7f00000000000000000000000000000000000000000000000000000000000000006001600160a01b031663ad5c46486040518163ffffffff1660e01b815260040160206040518083038186803b158015610dc357600080fd5b505afa158015610dd7573d6000803e3d6000fd5b505050506040513d601f19601f82011682018060405250810190610dfb919061290c565b87600201546040518463ffffffff1660e01b8152600401610e1e93929190613406565b60206040518083038186803b158015610e3657600080fd5b505afa158015610e4a573d6000803e3d6000fd5b505050506040513d601f19601f82011682018060405250810190610e6e9190612b11565b60008054600b8701546003880154604051634023282b60e01b815294955092936001600160a01b0390921692634023282b92610eaf92918891600401613406565b60206040518083038186803b158015610ec757600080fd5b505afa158015610edb573d6000803e3d6000fd5b505050506040513d601f19601f82011682018060405250810190610eff9190612b11565b905084600201548111610f185784600301549150610f1f565b5060028401545b6000610f727f0000000000000000000000000000000000000000000000000000000000000000610f5c8860050154856121a490919063ffffffff16565b81610f6357fe5b8491900463ffffffff6121e116565b90506000610fc77f0000000000000000000000000000000000000000000000000000000000000000610fb18960050154876121a490919063ffffffff16565b81610fb857fe5b8691900463ffffffff6121e116565b600c8801805460ff60a01b1916600160a01b179055875490915060ff9081167f000000000000000000000000000000000000000000000000000000000000000090911614156110235761101e868685878686612204565b611096565b86547f000000000000000000000000000000000000000000000000000000000000000060ff9081169116141561109657600061108087877f0000000000000000000000000000000000000000000000000000000000000000611ef9565b90506110948787838b600401548787612419565b505b60405188907f524f8e6c94465b4ab34a95b899f86628f3f6445ae120c4dacc9b3a67011dc25990600090a25050505050505050565b7f000000000000000000000000000000000000000000000000000000000000000081565b7f000000000000000000000000000000000000000000000000000000000000000081565b60007f00000000000000000000000000000000000000000000000000000000000000006001600160a01b0316826001600160a01b0316148061118657507f00000000000000000000000000000000000000000000000000000000000000006001600160a01b0316826001600160a01b0316145b6111a25760405162461bcd60e51b81526004016103b99061301d565b336001600160a01b037f000000000000000000000000000000000000000000000000000000000000000016146111ea5760405162461bcd60e51b81526004016103b990612f7a565b896001600160a01b03168b6001600160a01b0316141561121c5760405162461bcd60e51b81526004016103b990612eca565b896001600160a01b03168b6001600160a01b03161061124d5760405162461bcd60e51b81526004016103b990612f38565b60008911801561125d5750600088115b6112795760405162461bcd60e51b81526004016103b99061308b565b7f00000000000000000000000000000000000000000000000000000000000000008711156112b95760405162461bcd60e51b81526004016103b990612d7f565b824211156112d95760405162461bcd60e51b81526004016103b99061319b565b601e84116112f95760405162461bcd60e51b81526004016103b990612de2565b6001600160a01b038b1661132c57884710156113275760405162461bcd60e51b81526004016103b990612f01565b6113c8565b6040516370a0823160e01b815289906001600160a01b038d16906370a082319061135a903090600401612c49565b60206040518083038186803b15801561137257600080fd5b505afa158015611386573d6000803e3d6000fd5b505050506040513d601f19601f820116820180604052508101906113aa9190612b11565b10156113c85760405162461bcd60e51b81526004016103b9906130ce565b6040516370a0823160e01b815288906001600160a01b038c16906370a08231906113f6903090600401612c49565b60206040518083038186803b15801561140e57600080fd5b505afa158015611422573d6000803e3d6000fd5b505050506040513d601f19601f820116820180604052508101906114469190612b11565b10156114645760405162461bcd60e51b81526004016103b990613214565b60006114718c8c85611ef9565b905061147b612040565b9150604051806101e001604052807f000000000000000000000000000000000000000000000000000000000000000060ff1681526020018d6001600160a01b031681526020018c6001600160a01b031681526020018b81526020018a815260200160008152602001898152602001888152602001878152602001826001600160a01b0316815260200185815260200186815260200160008152602001846001600160a01b03168152602001600015158152506002600084815260200190815260200160002060008201518160000160006101000a81548160ff021916908360ff16021790555060208201518160000160016101000a8154816001600160a01b0302191690836001600160a01b0316021790555060408201518160010160006101000a8154816001600160a01b0302191690836001600160a01b03160217905550606082015181600201556080820151816003015560a0820151816004015560c0820151816005015560e0820151816006015561010082015181600701556101208201518160080160006101000a8154816001600160a01b0302191690836001600160a01b03160217905550610140820151816009015561016082015181600a015561018082015181600b01556101a082015181600c0160006101000a8154816001600160a01b0302191690836001600160a01b031602179055506101c082015181600c0160146101000a81548160ff0219169083151502179055509050507f000000000000000000000000000000000000000000000000000000000000000060ff16827f03d87a0db9f255a83b85d64d1e31d04ca94ac564c50b44f6ba9d52a731e441dc60405160405180910390a3600080826001600160a01b0316630902f1ac6040518163ffffffff1660e01b815260040160606040518083038186803b15801561172657600080fd5b505afa15801561173a573d6000803e3d6000fd5b505050506040513d601f19601f8201168201806040525081019061175e9190612aa5565b506001600160701b031691506001600160701b03169150886000148015611783575087155b801561178d575081155b8015611797575080155b15611806576000848152600260208190526040909120600c8101805460ff60a01b1916600160a01b17905501546117d6908f908f908f908f9080612204565b60405184907f524f8e6c94465b4ab34a95b899f86628f3f6445ae120c4dacc9b3a67011dc25990600090a26118ae565b60006118158d8d85858c6120bd565b6000546040516306649d6760e01b81529192506001600160a01b0316906306649d679061184890849088906004016133ef565b602060405180830381600087803b15801561186257600080fd5b505af1158015611876573d6000803e3d6000fd5b505050506040513d601f19601f8201168201806040525081019061189a9190612b11565b6000868152600260205260409020600b0155505b5050509a9950505050505050505050565b7f000000000000000000000000000000000000000000000000000000000000000081565b600081815260026020526040902060098101544211156119155760405162461bcd60e51b81526004016103b99061319b565b600054600b8201546040516325fa700360e01b81526001600160a01b03909216916325fa700391611948916004016133e6565b60206040518083038186803b15801561196057600080fd5b505afa158015611974573d6000803e3d6000fd5b505050506040513d601f19601f820116820180604052508101906119989190612a85565b156119b55760405162461bcd60e51b81526004016103b990612fb1565b6000611a177f0000000000000000000000000000000000000000000000000000000000000000611a0b7f00000000000000000000000000000000000000000000000000000000000000003a63ffffffff6121a416565b9063ffffffff6126d916565b90506000808360080160009054906101000a90046001600160a01b03166001600160a01b0316630902f1ac6040518163ffffffff1660e01b815260040160606040518083038186803b158015611a6c57600080fd5b505afa158015611a80573d6000803e3d6000fd5b505050506040513d601f19601f82011682018060405250810190611aa49190612aa5565b506001600160701b031691506001600160701b0316915083600601548210158015611ad3575083600701548110155b611aef5760405162461bcd60e51b81526004016103b9906132d1565b600054600b850154604051634155c48560e11b81526001600160a01b03909216916382ab890a91611b22916004016133e6565b600060405180830381600087803b158015611b3c57600080fd5b505af1158015611b50573d6000803e3d6000fd5b50505050824710611b6557611b653384611d80565b5050505050565b336001600160a01b037f00000000000000000000000000000000000000000000000000000000000000001614611bb45760405162461bcd60e51b81526004016103b990612f7a565b611bde7f000000000000000000000000000000000000000000000000000000000000000082611d80565b50565b7f000000000000000000000000000000000000000000000000000000000000000081565b336001600160a01b037f00000000000000000000000000000000000000000000000000000000000000001614611c4d5760405162461bcd60e51b81526004016103b990612f7a565b611c78827f000000000000000000000000000000000000000000000000000000000000000083611e12565b5050565b7f000000000000000000000000000000000000000000000000000000000000000081565b611ca861286d565b5060009081526002602081815260409283902083516101e081018552815460ff80821683526001600160a01b0361010092839004811695840195909552600184015485169683019690965293820154606082015260038201546080820152600482015460a0820152600582015460c0820152600682015460e0820152600782015493810193909352600881015482166101208401526009810154610140840152600a810154610160840152600b810154610180840152600c01549081166101a0830152600160a01b900490911615156101c082015290565b604080516000808252602082019092526001600160a01b038416908390604051611daa9190612bba565b60006040518083038185875af1925050503d8060008114611de7576040519150601f19603f3d011682016040523d82523d6000602084013e611dec565b606091505b5050905080611e0d5760405162461bcd60e51b81526004016103b990613257565b505050565b60006060846001600160a01b031663a9059cbb8585604051602401611e38929190612d00565b6040516020818303038152906040529060e01b6020820180516001600160e01b038381831617835250505050604051611e719190612bba565b6000604051808303816000865af19150503d8060008114611eae576040519150601f19603f3d011682016040523d82523d6000602084013e611eb3565b606091505b5091509150818015611edd575080511580611edd575080806020019051810190611edd9190612a85565b611b655760405162461bcd60e51b81526004016103b990612d48565b60007f00000000000000000000000000000000000000000000000000000000000000006001600160a01b0316826001600160a01b03161480611f6c57507f00000000000000000000000000000000000000000000000000000000000000006001600160a01b0316826001600160a01b0316145b611f885760405162461bcd60e51b81526004016103b99061301d565b6001600160a01b038416611fba577f000000000000000000000000000000000000000000000000000000000000000093505b60405163e6a4390560e01b81526001600160a01b0383169063e6a4390590611fe89087908790600401612c5d565b60206040518083038186803b15801561200057600080fd5b505afa158015612014573d6000803e3d6000fd5b505050506040513d601f19601f82011682018060405250810190612038919061290c565b949350505050565b6001805480820190915590565b600080600061205c85856126fc565b91509150858282604051602001612074929190612b93565b6040516020818303038152906040528051906020012060405160200161209b929190612bf3565b60408051601f1981840301815291905280516020909101209695505050505050565b600080841180156120ce5750600083115b156121985760006120e5858563ffffffff6126d916565b6121257f00000000000000000000000000000000000000000000000000000000000000006121198a8a63ffffffff6126d916565b9063ffffffff6121a416565b8161212c57fe5b0490506103e881101561214257601e9150612180565b6109c481101561215557603c9150612180565b61138881101561216857605a9150612180565b61271081101561217b5760789150612180565b609691505b8282111561218e5782612190565b815b91505061219b565b50805b95945050505050565b60008115806121bf575050808202828282816121bc57fe5b04145b6121db5760405162461bcd60e51b81526004016103b990612db4565b92915050565b808203828111156121db5760405162461bcd60e51b81526004016103b990612d19565b600080806001600160a01b0389166122ae577f00000000000000000000000000000000000000000000000000000000000000006001600160a01b031663d0e30db0886040518263ffffffff1660e01b81526004016000604051808303818588803b15801561227157600080fd5b505af1158015612285573d6000803e3d6000fd5b50505050507f000000000000000000000000000000000000000000000000000000000000000098505b6122d9897f000000000000000000000000000000000000000000000000000000000000000089612786565b612304887f000000000000000000000000000000000000000000000000000000000000000088612786565b60405162e8e33760e81b81526001600160a01b037f0000000000000000000000000000000000000000000000000000000000000000169063e8e337009061235d908c908c908c908c908c908c9030904290600401612cb7565b606060405180830381600087803b15801561237757600080fd5b505af115801561238b573d6000803e3d6000fd5b505050506040513d601f19601f820116820180604052508101906123af9190612b4c565b919450925090506123e2897f00000000000000000000000000000000000000000000000000000000000000006000612786565b61240e887f00000000000000000000000000000000000000000000000000000000000000006000612786565b505050505050505050565b6001600160a01b0386161561242e5785612450565b7f00000000000000000000000000000000000000000000000000000000000000005b955061247d847f000000000000000000000000000000000000000000000000000000000000000085612786565b6000807f00000000000000000000000000000000000000000000000000000000000000006001600160a01b031663baa2abde898988888830426040518863ffffffff1660e01b81526004016124d89796959493929190612c77565b6040805180830381600087803b1580156124f157600080fd5b505af1158015612505573d6000803e3d6000fd5b505050506040513d601f19601f820116820180604052508101906125299190612b29565b91509150612559867f00000000000000000000000000000000000000000000000000000000000000006000612786565b7f00000000000000000000000000000000000000000000000000000000000000006001600160a01b0316886001600160a01b0316141561261657604051632e1a7d4d60e01b81526001600160a01b037f00000000000000000000000000000000000000000000000000000000000000001690632e1a7d4d906125df9085906004016133e6565b600060405180830381600087803b1580156125f957600080fd5b505af115801561260d573d6000803e3d6000fd5b505050506126cf565b7f00000000000000000000000000000000000000000000000000000000000000006001600160a01b0316876001600160a01b031614156126cf57604051632e1a7d4d60e01b81526001600160a01b037f00000000000000000000000000000000000000000000000000000000000000001690632e1a7d4d9061269c9084906004016133e6565b600060405180830381600087803b1580156126b657600080fd5b505af11580156126ca573d6000803e3d6000fd5b505050505b5050505050505050565b808201828110156121db5760405162461bcd60e51b81526004016103b990612e23565b600080826001600160a01b0316846001600160a01b031614156127315760405162461bcd60e51b81526004016103b990612e88565b826001600160a01b0316846001600160a01b031610612751578284612754565b83835b90925090506001600160a01b03821661277f5760405162461bcd60e51b81526004016103b99061329a565b9250929050565b60006060846001600160a01b031663095ea7b385856040516024016127ac929190612d00565b6040516020818303038152906040529060e01b6020820180516001600160e01b0383818316178352505050506040516127e59190612bba565b6000604051808303816000865af19150503d8060008114612822576040519150601f19603f3d011682016040523d82523d6000602084013e612827565b606091505b50915091508180156128515750805115806128515750808060200190518101906128519190612a85565b611b655760405162461bcd60e51b81526004016103b990612e51565b604051806101e00160405280600060ff16815260200160006001600160a01b0316815260200160006001600160a01b0316815260200160008152602001600081526020016000815260200160008152602001600081526020016000815260200160006001600160a01b0316815260200160008152602001600081526020016000815260200160006001600160a01b031681526020016000151581525090565b60006020828403121561291d578081fd5b815161292881613433565b9392505050565b6000806000806000806000806000806101408b8d03121561294e578586fd5b8a3561295981613433565b995060208b013561296981613433565b985060408b0135975060608b0135965060808b0135955060a08b0135945060c08b0135935060e08b013592506101008b013591506101208b01356129ac81613433565b809150509295989b9194979a5092959850565b60008060008060008060008060008060006101608c8e0312156129e0578081fd5b8b356129eb81613433565b9a5060208c01356129fb81613433565b995060408c0135985060608c0135975060808c0135965060a08c0135955060c08c0135945060e08c013593506101008c013592506101208c013591506101408c0135612a4681613433565b809150509295989b509295989b9093969950565b60008060408385031215612a6c578182fd5b8235612a7781613433565b946020939093013593505050565b600060208284031215612a96578081fd5b81518015158114612928578182fd5b600080600060608486031215612ab9578283fd5b8351612ac481613448565b6020850151909350612ad581613448565b604085015190925063ffffffff81168114612aee578182fd5b809150509250925092565b600060208284031215612b0a578081fd5b5035919050565b600060208284031215612b22578081fd5b5051919050565b60008060408385031215612b3b578182fd5b505080516020909101519092909150565b600080600060608486031215612b60578283fd5b8351925060208401519150604084015190509250925092565b6001600160a01b03169052565b15159052565b60ff169052565b6bffffffffffffffffffffffff19606093841b811682529190921b16601482015260280190565b60008251815b81811015612bda5760208186018101518583015201612bc0565b81811115612be85782828501525b509190910192915050565b6001600160f81b0319815260609290921b6bffffffffffffffffffffffff1916600183015260158201527fae81bbc68f315fbbf7617eb881349af83b1e95241f616966e1e0583ecd0793fe603582015260550190565b6001600160a01b0391909116815260200190565b6001600160a01b0392831681529116602082015260400190565b6001600160a01b039788168152958716602087015260408601949094526060850192909252608084015290921660a082015260c081019190915260e00190565b6001600160a01b039889168152968816602088015260408701959095526060860193909352608085019190915260a084015290921660c082015260e08101919091526101000190565b6001600160a01b03929092168252602082015260400190565b60208082526015908201527464732d6d6174682d7375622d756e646572666c6f7760581b604082015260600190565b6020808252601f908201527f5472616e7366657248656c7065723a205452414e534645525f4641494c454400604082015260600190565b6020808252818101527f44587377617052656c617965723a20494e56414c49445f544f4c4552414e4345604082015260600190565b60208082526014908201527364732d6d6174682d6d756c2d6f766572666c6f7760601b604082015260600190565b60208082526021908201527f44587377617052656c617965723a20494e56414c49445f57494e444f5754494d6040820152604560f81b606082015260800190565b60208082526014908201527364732d6d6174682d6164642d6f766572666c6f7760601b604082015260600190565b6020808252601e908201527f5472616e7366657248656c7065723a20415050524f56455f4641494c45440000604082015260600190565b60208082526022908201527f4458737761704c6962726172793a204944454e544943414c5f41444452455353604082015261455360f01b606082015260800190565b6020808252601b908201527f44587377617052656c617965723a20494e56414c49445f504149520000000000604082015260600190565b6020808252601f908201527f44587377617052656c617965723a20494e53554646494349454e545f45544800604082015260600190565b60208082526022908201527f44587377617052656c617965723a20494e56414c49445f544f4b454e5f4f524460408201526122a960f11b606082015260800190565b6020808252601f908201527f44587377617052656c617965723a2043414c4c45525f4e4f545f4f574e455200604082015260600190565b6020808252818101527f44587377617052656c617965723a204f42534552564154494f4e5f454e444544604082015260600190565b6020808252601d908201527f44587377617052656c617965723a204f524445525f4558454355544544000000604082015260600190565b6020808252601e908201527f44587377617052656c617965723a20494e56414c49445f464143544f52590000604082015260600190565b6020808252601c908201527f44587377617052656c617965723a20494e56414c49445f4f5244455200000000604082015260600190565b60208082526023908201527f44587377617052656c617965723a20494e56414c49445f544f4b454e5f414d4f60408201526215539560ea1b606082015260800190565b60208082526023908201527f44587377617052656c617965723a20494e53554646494349454e545f544f4b456040820152624e5f4160e81b606082015260800190565b60208082526027908201527f44587377617052656c617965723a20494e56414c49445f4c495155494449545960408201526617d05353d5539560ca1b606082015260800190565b60208082526023908201527f44587377617052656c617965723a20444541444c494e455f4e4f545f5245414360408201526212115160ea1b606082015260800190565b6020808252601f908201527f44587377617052656c617965723a20444541444c494e455f5245414348454400604082015260600190565b60208082526022908201527f44587377617052656c617965723a204f42534552564154494f4e5f52554e4e496040820152614e4760f01b606082015260800190565b60208082526023908201527f44587377617052656c617965723a20494e53554646494349454e545f544f4b45604082015262272fa160e91b606082015260800190565b60208082526023908201527f5472616e7366657248656c7065723a204554485f5452414e534645525f46414960408201526213115160ea1b606082015260800190565b6020808252601b908201527f4458737761704c6962726172793a205a45524f5f414444524553530000000000604082015260600190565b6020808252601d908201527f44587377617052656c617965723a20524553455256455f544f5f4c4f57000000604082015260600190565b60006101e08201905061331c828451612b8c565b602083015161332e6020840182612b79565b5060408301516133416040840182612b79565b50606083015160608301526080830151608083015260a083015160a083015260c083015160c083015260e083015160e08301526101008084015181840152506101208084015161339382850182612b79565b50506101408381015190830152610160808401519083015261018080840151908301526101a0808401516133c982850182612b79565b50506101c0808401516133de82850182612b86565b505092915050565b90815260200190565b9182526001600160a01b0316602082015260400190565b9283526001600160a01b03919091166020830152604082015260600190565b60ff91909116815260200190565b6001600160a01b0381168114611bde57600080fd5b6001600160701b0381168114611bde57600080fdfea26469706673582212201d3420939819ba5c266fbdf4b553a6179ab8af22bec0d0ce11037efc85dd124464736f6c63430006060033",
      "opcodes": "PUSH2 0x1E0 PUSH1 0x40 MSTORE PUSH3 0x291AC PUSH1 0x80 MSTORE PUSH3 0xF4240 PUSH1 0xA0 MSTORE PUSH7 0x2386F26FC10000 PUSH1 0xC0 MSTORE PUSH1 0x1 PUSH1 0xF8 SHL PUSH1 0xE0 MSTORE PUSH1 0x1 PUSH1 0xF9 SHL PUSH2 0x100 MSTORE CALLVALUE DUP1 ISZERO PUSH3 0x3C JUMPI PUSH1 0x0 DUP1 REVERT JUMPDEST POP PUSH1 0x40 MLOAD PUSH3 0x37A3 CODESIZE SUB DUP1 PUSH3 0x37A3 DUP4 CODECOPY DUP2 ADD PUSH1 0x40 DUP2 SWAP1 MSTORE PUSH3 0x5F SWAP2 PUSH3 0xC4 JUMP JUMPDEST PUSH1 0x60 SWAP7 DUP8 SHL PUSH1 0x1 PUSH1 0x1 PUSH1 0x60 SHL SUB NOT SWAP1 DUP2 AND PUSH2 0x120 MSTORE SWAP6 DUP8 SHL DUP7 AND PUSH2 0x140 MSTORE SWAP4 DUP7 SHL DUP6 AND PUSH2 0x160 MSTORE SWAP2 DUP6 SHL DUP5 AND PUSH2 0x180 MSTORE DUP5 SHL DUP4 AND PUSH2 0x1A0 MSTORE SWAP1 SWAP3 SHL AND PUSH2 0x1C0 MSTORE PUSH1 0x0 DUP1 SLOAD PUSH1 0x1 PUSH1 0x1 PUSH1 0xA0 SHL SUB NOT AND PUSH1 0x1 PUSH1 0x1 PUSH1 0xA0 SHL SUB SWAP1 SWAP3 AND SWAP2 SWAP1 SWAP2 OR SWAP1 SSTORE PUSH3 0x187 JUMP JUMPDEST PUSH1 0x0 DUP1 PUSH1 0x0 DUP1 PUSH1 0x0 DUP1 PUSH1 0x0 PUSH1 0xE0 DUP9 DUP11 SUB SLT ISZERO PUSH3 0xDF JUMPI DUP3 DUP4 REVERT JUMPDEST DUP8 MLOAD PUSH3 0xEC DUP2 PUSH3 0x16E JUMP JUMPDEST PUSH1 0x20 DUP10 ADD MLOAD SWAP1 SWAP8 POP PUSH3 0xFF DUP2 PUSH3 0x16E JUMP JUMPDEST PUSH1 0x40 DUP10 ADD MLOAD SWAP1 SWAP7 POP PUSH3 0x112 DUP2 PUSH3 0x16E JUMP JUMPDEST PUSH1 0x60 DUP10 ADD MLOAD SWAP1 SWAP6 POP PUSH3 0x125 DUP2 PUSH3 0x16E JUMP JUMPDEST PUSH1 0x80 DUP10 ADD MLOAD SWAP1 SWAP5 POP PUSH3 0x138 DUP2 PUSH3 0x16E JUMP JUMPDEST PUSH1 0xA0 DUP10 ADD MLOAD SWAP1 SWAP4 POP PUSH3 0x14B DUP2 PUSH3 0x16E JUMP JUMPDEST PUSH1 0xC0 DUP10 ADD MLOAD SWAP1 SWAP3 POP PUSH3 0x15E DUP2 PUSH3 0x16E JUMP JUMPDEST DUP1 SWAP2 POP POP SWAP3 SWAP6 SWAP9 SWAP2 SWAP5 SWAP8 POP SWAP3 SWAP6 POP JUMP JUMPDEST PUSH1 0x1 PUSH1 0x1 PUSH1 0xA0 SHL SUB DUP2 AND DUP2 EQ PUSH3 0x184 JUMPI PUSH1 0x0 DUP1 REVERT JUMPDEST POP JUMP JUMPDEST PUSH1 0x80 MLOAD PUSH1 0xA0 MLOAD PUSH1 0xC0 MLOAD PUSH1 0xE0 MLOAD PUSH1 0xF8 SHR PUSH2 0x100 MLOAD PUSH1 0xF8 SHR PUSH2 0x120 MLOAD PUSH1 0x60 SHR PUSH2 0x140 MLOAD PUSH1 0x60 SHR PUSH2 0x160 MLOAD PUSH1 0x60 SHR PUSH2 0x180 MLOAD PUSH1 0x60 SHR PUSH2 0x1A0 MLOAD PUSH1 0x60 SHR PUSH2 0x1C0 MLOAD PUSH1 0x60 SHR PUSH2 0x3493 PUSH3 0x310 PUSH1 0x0 CODECOPY DUP1 PUSH2 0xA06 MSTORE DUP1 PUSH2 0x10F1 MSTORE DUP1 PUSH2 0x1F98 MSTORE DUP1 PUSH2 0x2218 MSTORE DUP1 PUSH2 0x228C MSTORE DUP1 PUSH2 0x2430 MSTORE DUP1 PUSH2 0x255B MSTORE DUP1 PUSH2 0x25AA MSTORE DUP1 PUSH2 0x2618 MSTORE DUP1 PUSH2 0x2667 MSTORE POP DUP1 PUSH2 0x554 MSTORE POP DUP1 PUSH2 0x578 MSTORE DUP1 PUSH2 0x5FD MSTORE DUP1 PUSH2 0x1152 MSTORE DUP1 PUSH2 0x1F38 MSTORE POP DUP1 PUSH2 0xD6C MSTORE DUP1 PUSH2 0x10CD MSTORE DUP1 PUSH2 0x22B4 MSTORE DUP1 PUSH2 0x22DF MSTORE DUP1 PUSH2 0x231A MSTORE DUP1 PUSH2 0x23BC MSTORE DUP1 PUSH2 0x23E8 MSTORE DUP1 PUSH2 0x2458 MSTORE DUP1 PUSH2 0x2482 MSTORE DUP1 PUSH2 0x2533 MSTORE POP DUP1 PUSH2 0x530 MSTORE DUP1 PUSH2 0x5C2 MSTORE DUP1 PUSH2 0xA2F MSTORE DUP1 PUSH2 0x105C MSTORE DUP1 PUSH2 0x1117 MSTORE DUP1 PUSH2 0x1EFD MSTORE POP DUP1 PUSH2 0x37C MSTORE DUP1 PUSH2 0x457 MSTORE DUP1 PUSH2 0x487 MSTORE DUP1 PUSH2 0x4B2 MSTORE DUP1 PUSH2 0x658 MSTORE DUP1 PUSH2 0xBEF MSTORE DUP1 PUSH2 0x11AD MSTORE DUP1 PUSH2 0x1B77 MSTORE DUP1 PUSH2 0x1BB9 MSTORE DUP1 PUSH2 0x1C10 MSTORE DUP1 PUSH2 0x1C53 MSTORE POP DUP1 PUSH2 0x50C MSTORE DUP1 PUSH2 0x7D7 MSTORE DUP1 PUSH2 0xB92 MSTORE DUP1 PUSH2 0x1027 MSTORE POP DUP1 PUSH2 0xFE8 MSTORE DUP1 PUSH2 0x148B MSTORE DUP1 PUSH2 0x169B MSTORE DUP1 PUSH2 0x18C1 MSTORE POP DUP1 PUSH2 0x19BC MSTORE DUP1 PUSH2 0x1BE3 MSTORE POP DUP1 PUSH2 0x732 MSTORE DUP1 PUSH2 0xF26 MSTORE DUP1 PUSH2 0xF7B MSTORE DUP1 PUSH2 0x127B MSTORE DUP1 PUSH2 0x1C7E MSTORE DUP1 PUSH2 0x20EA MSTORE POP DUP1 PUSH2 0x59C MSTORE DUP1 PUSH2 0x19E0 MSTORE POP PUSH2 0x3493 PUSH1 0x0 RETURN INVALID PUSH1 0x80 PUSH1 0x40 MSTORE PUSH1 0x4 CALLDATASIZE LT PUSH2 0x123 JUMPI PUSH1 0x0 CALLDATALOAD PUSH1 0xE0 SHR DUP1 PUSH4 0x9DD9B5F1 GT PUSH2 0xA0 JUMPI DUP1 PUSH4 0xC58125BC GT PUSH2 0x64 JUMPI DUP1 PUSH4 0xC58125BC EQ PUSH2 0x2C6 JUMPI DUP1 PUSH4 0xD081F2B8 EQ PUSH2 0x2E6 JUMPI DUP1 PUSH4 0xD530F4E7 EQ PUSH2 0x2FB JUMPI DUP1 PUSH4 0xEC6EA812 EQ PUSH2 0x31B JUMPI DUP1 PUSH4 0xFFC5EA0D EQ PUSH2 0x330 JUMPI PUSH2 0x12A JUMP JUMPDEST DUP1 PUSH4 0x9DD9B5F1 EQ PUSH2 0x254 JUMPI DUP1 PUSH4 0xAD5C4648 EQ PUSH2 0x269 JUMPI DUP1 PUSH4 0xB7345D2F EQ PUSH2 0x27E JUMPI DUP1 PUSH4 0xB964930A EQ PUSH2 0x291 JUMPI DUP1 PUSH4 0xC23C1C9F EQ PUSH2 0x2A6 JUMPI PUSH2 0x12A JUMP JUMPDEST DUP1 PUSH4 0x8BDB2AFA GT PUSH2 0xE7 JUMPI DUP1 PUSH4 0x8BDB2AFA EQ PUSH2 0x1D5 JUMPI DUP1 PUSH4 0x8C0A63BF EQ PUSH2 0x1EA JUMPI DUP1 PUSH4 0x8D091C34 EQ PUSH2 0x1FF JUMPI DUP1 PUSH4 0x8DA5CB5B EQ PUSH2 0x21F JUMPI DUP1 PUSH4 0x94F61134 EQ PUSH2 0x234 JUMPI PUSH2 0x12A JUMP JUMPDEST DUP1 PUSH4 0x2453FFA8 EQ PUSH2 0x12F JUMPI DUP1 PUSH4 0x2CB2DB61 EQ PUSH2 0x15A JUMPI DUP1 PUSH4 0x4860BFE5 EQ PUSH2 0x17C JUMPI DUP1 PUSH4 0x659BD06F EQ PUSH2 0x19E JUMPI DUP1 PUSH4 0x735DE9F7 EQ PUSH2 0x1C0 JUMPI PUSH2 0x12A JUMP JUMPDEST CALLDATASIZE PUSH2 0x12A JUMPI STOP JUMPDEST PUSH1 0x0 DUP1 REVERT JUMPDEST CALLVALUE DUP1 ISZERO PUSH2 0x13B JUMPI PUSH1 0x0 DUP1 REVERT JUMPDEST POP PUSH2 0x144 PUSH2 0x35D JUMP JUMPDEST PUSH1 0x40 MLOAD PUSH2 0x151 SWAP2 SWAP1 PUSH2 0x33E6 JUMP JUMPDEST PUSH1 0x40 MLOAD DUP1 SWAP2 SUB SWAP1 RETURN JUMPDEST CALLVALUE DUP1 ISZERO PUSH2 0x166 JUMPI PUSH1 0x0 DUP1 REVERT JUMPDEST POP PUSH2 0x17A PUSH2 0x175 CALLDATASIZE PUSH1 0x4 PUSH2 0x2AF9 JUMP JUMPDEST PUSH2 0x363 JUMP JUMPDEST STOP JUMPDEST CALLVALUE DUP1 ISZERO PUSH2 0x188 JUMPI PUSH1 0x0 DUP1 REVERT JUMPDEST POP PUSH2 0x191 PUSH2 0x50A JUMP JUMPDEST PUSH1 0x40 MLOAD PUSH2 0x151 SWAP2 SWAP1 PUSH2 0x3425 JUMP JUMPDEST CALLVALUE DUP1 ISZERO PUSH2 0x1AA JUMPI PUSH1 0x0 DUP1 REVERT JUMPDEST POP PUSH2 0x1B3 PUSH2 0x52E JUMP JUMPDEST PUSH1 0x40 MLOAD PUSH2 0x151 SWAP2 SWAP1 PUSH2 0x2C49 JUMP JUMPDEST CALLVALUE DUP1 ISZERO PUSH2 0x1CC JUMPI PUSH1 0x0 DUP1 REVERT JUMPDEST POP PUSH2 0x1B3 PUSH2 0x552 JUMP JUMPDEST CALLVALUE DUP1 ISZERO PUSH2 0x1E1 JUMPI PUSH1 0x0 DUP1 REVERT JUMPDEST POP PUSH2 0x1B3 PUSH2 0x576 JUMP JUMPDEST CALLVALUE DUP1 ISZERO PUSH2 0x1F6 JUMPI PUSH1 0x0 DUP1 REVERT JUMPDEST POP PUSH2 0x144 PUSH2 0x59A JUMP JUMPDEST CALLVALUE DUP1 ISZERO PUSH2 0x20B JUMPI PUSH1 0x0 DUP1 REVERT JUMPDEST POP PUSH2 0x144 PUSH2 0x21A CALLDATASIZE PUSH1 0x4 PUSH2 0x29BF JUMP JUMPDEST PUSH2 0x5BE JUMP JUMPDEST CALLVALUE DUP1 ISZERO PUSH2 0x22B JUMPI PUSH1 0x0 DUP1 REVERT JUMPDEST POP PUSH2 0x1B3 PUSH2 0xBED JUMP JUMPDEST CALLVALUE DUP1 ISZERO PUSH2 0x240 JUMPI PUSH1 0x0 DUP1 REVERT JUMPDEST POP PUSH2 0x17A PUSH2 0x24F CALLDATASIZE PUSH1 0x4 PUSH2 0x2AF9 JUMP JUMPDEST PUSH2 0xC11 JUMP JUMPDEST CALLVALUE DUP1 ISZERO PUSH2 0x260 JUMPI PUSH1 0x0 DUP1 REVERT JUMPDEST POP PUSH2 0x1B3 PUSH2 0x10CB JUMP JUMPDEST CALLVALUE DUP1 ISZERO PUSH2 0x275 JUMPI PUSH1 0x0 DUP1 REVERT JUMPDEST POP PUSH2 0x1B3 PUSH2 0x10EF JUMP JUMPDEST PUSH2 0x144 PUSH2 0x28C CALLDATASIZE PUSH1 0x4 PUSH2 0x292F JUMP JUMPDEST PUSH2 0x1113 JUMP JUMPDEST CALLVALUE DUP1 ISZERO PUSH2 0x29D JUMPI PUSH1 0x0 DUP1 REVERT JUMPDEST POP PUSH2 0x191 PUSH2 0x18BF JUMP JUMPDEST CALLVALUE DUP1 ISZERO PUSH2 0x2B2 JUMPI PUSH1 0x0 DUP1 REVERT JUMPDEST POP PUSH2 0x17A PUSH2 0x2C1 CALLDATASIZE PUSH1 0x4 PUSH2 0x2AF9 JUMP JUMPDEST PUSH2 0x18E3 JUMP JUMPDEST CALLVALUE DUP1 ISZERO PUSH2 0x2D2 JUMPI PUSH1 0x0 DUP1 REVERT JUMPDEST POP PUSH2 0x17A PUSH2 0x2E1 CALLDATASIZE PUSH1 0x4 PUSH2 0x2AF9 JUMP JUMPDEST PUSH2 0x1B6C JUMP JUMPDEST CALLVALUE DUP1 ISZERO PUSH2 0x2F2 JUMPI PUSH1 0x0 DUP1 REVERT JUMPDEST POP PUSH2 0x144 PUSH2 0x1BE1 JUMP JUMPDEST CALLVALUE DUP1 ISZERO PUSH2 0x307 JUMPI PUSH1 0x0 DUP1 REVERT JUMPDEST POP PUSH2 0x17A PUSH2 0x316 CALLDATASIZE PUSH1 0x4 PUSH2 0x2A5A JUMP JUMPDEST PUSH2 0x1C05 JUMP JUMPDEST CALLVALUE DUP1 ISZERO PUSH2 0x327 JUMPI PUSH1 0x0 DUP1 REVERT JUMPDEST POP PUSH2 0x144 PUSH2 0x1C7C JUMP JUMPDEST CALLVALUE DUP1 ISZERO PUSH2 0x33C JUMPI PUSH1 0x0 DUP1 REVERT JUMPDEST POP PUSH2 0x350 PUSH2 0x34B CALLDATASIZE PUSH1 0x4 PUSH2 0x2AF9 JUMP JUMPDEST PUSH2 0x1CA0 JUMP JUMPDEST PUSH1 0x40 MLOAD PUSH2 0x151 SWAP2 SWAP1 PUSH2 0x3308 JUMP JUMPDEST PUSH1 0x1 SLOAD DUP2 JUMP JUMPDEST PUSH1 0x0 DUP2 DUP2 MSTORE PUSH1 0x2 PUSH1 0x20 MSTORE PUSH1 0x40 SWAP1 KECCAK256 CALLER PUSH1 0x1 PUSH1 0x1 PUSH1 0xA0 SHL SUB PUSH32 0x0 AND EQ PUSH2 0x3C2 JUMPI PUSH1 0x40 MLOAD PUSH3 0x461BCD PUSH1 0xE5 SHL DUP2 MSTORE PUSH1 0x4 ADD PUSH2 0x3B9 SWAP1 PUSH2 0x2F7A JUMP JUMPDEST PUSH1 0x40 MLOAD DUP1 SWAP2 SUB SWAP1 REVERT JUMPDEST DUP1 PUSH1 0x9 ADD SLOAD TIMESTAMP GT PUSH2 0x3E5 JUMPI PUSH1 0x40 MLOAD PUSH3 0x461BCD PUSH1 0xE5 SHL DUP2 MSTORE PUSH1 0x4 ADD PUSH2 0x3B9 SWAP1 PUSH2 0x3158 JUMP JUMPDEST PUSH1 0xC DUP2 ADD SLOAD PUSH1 0x1 PUSH1 0xA0 SHL SWAP1 DIV PUSH1 0xFF AND ISZERO PUSH2 0x411 JUMPI PUSH1 0x40 MLOAD PUSH3 0x461BCD PUSH1 0xE5 SHL DUP2 MSTORE PUSH1 0x4 ADD PUSH2 0x3B9 SWAP1 PUSH2 0x2FE6 JUMP JUMPDEST DUP1 SLOAD PUSH1 0x1 DUP3 ADD SLOAD PUSH1 0x2 DUP4 ADD SLOAD PUSH1 0x3 DUP5 ADD SLOAD PUSH1 0xC DUP6 ADD DUP1 SLOAD PUSH1 0xFF PUSH1 0xA0 SHL NOT AND PUSH1 0x1 PUSH1 0xA0 SHL OR SWAP1 SSTORE PUSH1 0x1 PUSH1 0x1 PUSH1 0xA0 SHL SUB PUSH2 0x100 SWAP1 SWAP5 DIV DUP5 AND SWAP4 SWAP3 SWAP1 SWAP3 AND SWAP2 DUP4 PUSH2 0x481 JUMPI PUSH2 0x47C PUSH32 0x0 DUP4 PUSH2 0x1D80 JUMP JUMPDEST PUSH2 0x4AC JUMP JUMPDEST PUSH2 0x4AC DUP5 PUSH32 0x0 DUP5 PUSH2 0x1E12 JUMP JUMPDEST PUSH2 0x4D7 DUP4 PUSH32 0x0 DUP4 PUSH2 0x1E12 JUMP JUMPDEST PUSH1 0x40 MLOAD DUP7 SWAP1 PUSH32 0x3F9D01B8340245EA975087559A7911155F1B300F5B19AA35FCC67D4ADF962C85 SWAP1 PUSH1 0x0 SWAP1 LOG2 POP POP POP POP POP POP JUMP JUMPDEST PUSH32 0x0 DUP2 JUMP JUMPDEST PUSH32 0x0 DUP2 JUMP JUMPDEST PUSH32 0x0 DUP2 JUMP JUMPDEST PUSH32 0x0 DUP2 JUMP JUMPDEST PUSH32 0x0 DUP2 JUMP JUMPDEST PUSH1 0x0 PUSH32 0x0 PUSH1 0x1 PUSH1 0x1 PUSH1 0xA0 SHL SUB AND DUP3 PUSH1 0x1 PUSH1 0x1 PUSH1 0xA0 SHL SUB AND EQ DUP1 PUSH2 0x631 JUMPI POP PUSH32 0x0 PUSH1 0x1 PUSH1 0x1 PUSH1 0xA0 SHL SUB AND DUP3 PUSH1 0x1 PUSH1 0x1 PUSH1 0xA0 SHL SUB AND EQ JUMPDEST PUSH2 0x64D JUMPI PUSH1 0x40 MLOAD PUSH3 0x461BCD PUSH1 0xE5 SHL DUP2 MSTORE PUSH1 0x4 ADD PUSH2 0x3B9 SWAP1 PUSH2 0x301D JUMP JUMPDEST CALLER PUSH1 0x1 PUSH1 0x1 PUSH1 0xA0 SHL SUB PUSH32 0x0 AND EQ PUSH2 0x695 JUMPI PUSH1 0x40 MLOAD PUSH3 0x461BCD PUSH1 0xE5 SHL DUP2 MSTORE PUSH1 0x4 ADD PUSH2 0x3B9 SWAP1 PUSH2 0x2F7A JUMP JUMPDEST DUP11 PUSH1 0x1 PUSH1 0x1 PUSH1 0xA0 SHL SUB AND DUP13 PUSH1 0x1 PUSH1 0x1 PUSH1 0xA0 SHL SUB AND EQ ISZERO PUSH2 0x6C7 JUMPI PUSH1 0x40 MLOAD PUSH3 0x461BCD PUSH1 0xE5 SHL DUP2 MSTORE PUSH1 0x4 ADD PUSH2 0x3B9 SWAP1 PUSH2 0x2ECA JUMP JUMPDEST DUP11 PUSH1 0x1 PUSH1 0x1 PUSH1 0xA0 SHL SUB AND DUP13 PUSH1 0x1 PUSH1 0x1 PUSH1 0xA0 SHL SUB AND LT PUSH2 0x6F8 JUMPI PUSH1 0x40 MLOAD PUSH3 0x461BCD PUSH1 0xE5 SHL DUP2 MSTORE PUSH1 0x4 ADD PUSH2 0x3B9 SWAP1 PUSH2 0x2F38 JUMP JUMPDEST PUSH1 0x0 DUP10 GT DUP1 ISZERO PUSH2 0x708 JUMPI POP PUSH1 0x0 DUP9 GT JUMPDEST DUP1 ISZERO PUSH2 0x714 JUMPI POP PUSH1 0x0 DUP11 GT JUMPDEST PUSH2 0x730 JUMPI PUSH1 0x40 MLOAD PUSH3 0x461BCD PUSH1 0xE5 SHL DUP2 MSTORE PUSH1 0x4 ADD PUSH2 0x3B9 SWAP1 PUSH2 0x3111 JUMP JUMPDEST PUSH32 0x0 DUP8 GT ISZERO PUSH2 0x770 JUMPI PUSH1 0x40 MLOAD PUSH3 0x461BCD PUSH1 0xE5 SHL DUP2 MSTORE PUSH1 0x4 ADD PUSH2 0x3B9 SWAP1 PUSH2 0x2D7F JUMP JUMPDEST DUP3 TIMESTAMP GT ISZERO PUSH2 0x790 JUMPI PUSH1 0x40 MLOAD PUSH3 0x461BCD PUSH1 0xE5 SHL DUP2 MSTORE PUSH1 0x4 ADD PUSH2 0x3B9 SWAP1 PUSH2 0x319B JUMP JUMPDEST PUSH1 0x1E DUP5 GT PUSH2 0x7B0 JUMPI PUSH1 0x40 MLOAD PUSH3 0x461BCD PUSH1 0xE5 SHL DUP2 MSTORE PUSH1 0x4 ADD PUSH2 0x3B9 SWAP1 PUSH2 0x2DE2 JUMP JUMPDEST PUSH1 0x0 PUSH2 0x7BD DUP14 DUP14 DUP6 PUSH2 0x1EF9 JUMP JUMPDEST SWAP1 POP PUSH2 0x7C7 PUSH2 0x2040 JUMP JUMPDEST SWAP2 POP PUSH1 0x40 MLOAD DUP1 PUSH2 0x1E0 ADD PUSH1 0x40 MSTORE DUP1 PUSH32 0x0 PUSH1 0xFF AND DUP2 MSTORE PUSH1 0x20 ADD DUP15 PUSH1 0x1 PUSH1 0x1 PUSH1 0xA0 SHL SUB AND DUP2 MSTORE PUSH1 0x20 ADD DUP14 PUSH1 0x1 PUSH1 0x1 PUSH1 0xA0 SHL SUB AND DUP2 MSTORE PUSH1 0x20 ADD DUP12 DUP2 MSTORE PUSH1 0x20 ADD DUP11 DUP2 MSTORE PUSH1 0x20 ADD DUP13 DUP2 MSTORE PUSH1 0x20 ADD DUP10 DUP2 MSTORE PUSH1 0x20 ADD DUP9 DUP2 MSTORE PUSH1 0x20 ADD DUP8 DUP2 MSTORE PUSH1 0x20 ADD DUP3 PUSH1 0x1 PUSH1 0x1 PUSH1 0xA0 SHL SUB AND DUP2 MSTORE PUSH1 0x20 ADD DUP6 DUP2 MSTORE PUSH1 0x20 ADD DUP7 DUP2 MSTORE PUSH1 0x20 ADD PUSH1 0x0 DUP2 MSTORE PUSH1 0x20 ADD DUP5 PUSH1 0x1 PUSH1 0x1 PUSH1 0xA0 SHL SUB AND DUP2 MSTORE PUSH1 0x20 ADD PUSH1 0x0 ISZERO ISZERO DUP2 MSTORE POP PUSH1 0x2 PUSH1 0x0 DUP5 DUP2 MSTORE PUSH1 0x20 ADD SWAP1 DUP2 MSTORE PUSH1 0x20 ADD PUSH1 0x0 KECCAK256 PUSH1 0x0 DUP3 ADD MLOAD DUP2 PUSH1 0x0 ADD PUSH1 0x0 PUSH2 0x100 EXP DUP2 SLOAD DUP2 PUSH1 0xFF MUL NOT AND SWAP1 DUP4 PUSH1 0xFF AND MUL OR SWAP1 SSTORE POP PUSH1 0x20 DUP3 ADD MLOAD DUP2 PUSH1 0x0 ADD PUSH1 0x1 PUSH2 0x100 EXP DUP2 SLOAD DUP2 PUSH1 0x1 PUSH1 0x1 PUSH1 0xA0 SHL SUB MUL NOT AND SWAP1 DUP4 PUSH1 0x1 PUSH1 0x1 PUSH1 0xA0 SHL SUB AND MUL OR SWAP1 SSTORE POP PUSH1 0x40 DUP3 ADD MLOAD DUP2 PUSH1 0x1 ADD PUSH1 0x0 PUSH2 0x100 EXP DUP2 SLOAD DUP2 PUSH1 0x1 PUSH1 0x1 PUSH1 0xA0 SHL SUB MUL NOT AND SWAP1 DUP4 PUSH1 0x1 PUSH1 0x1 PUSH1 0xA0 SHL SUB AND MUL OR SWAP1 SSTORE POP PUSH1 0x60 DUP3 ADD MLOAD DUP2 PUSH1 0x2 ADD SSTORE PUSH1 0x80 DUP3 ADD MLOAD DUP2 PUSH1 0x3 ADD SSTORE PUSH1 0xA0 DUP3 ADD MLOAD DUP2 PUSH1 0x4 ADD SSTORE PUSH1 0xC0 DUP3 ADD MLOAD DUP2 PUSH1 0x5 ADD SSTORE PUSH1 0xE0 DUP3 ADD MLOAD DUP2 PUSH1 0x6 ADD SSTORE PUSH2 0x100 DUP3 ADD MLOAD DUP2 PUSH1 0x7 ADD SSTORE PUSH2 0x120 DUP3 ADD MLOAD DUP2 PUSH1 0x8 ADD PUSH1 0x0 PUSH2 0x100 EXP DUP2 SLOAD DUP2 PUSH1 0x1 PUSH1 0x1 PUSH1 0xA0 SHL SUB MUL NOT AND SWAP1 DUP4 PUSH1 0x1 PUSH1 0x1 PUSH1 0xA0 SHL SUB AND MUL OR SWAP1 SSTORE POP PUSH2 0x140 DUP3 ADD MLOAD DUP2 PUSH1 0x9 ADD SSTORE PUSH2 0x160 DUP3 ADD MLOAD DUP2 PUSH1 0xA ADD SSTORE PUSH2 0x180 DUP3 ADD MLOAD DUP2 PUSH1 0xB ADD SSTORE PUSH2 0x1A0 DUP3 ADD MLOAD DUP2 PUSH1 0xC ADD PUSH1 0x0 PUSH2 0x100 EXP DUP2 SLOAD DUP2 PUSH1 0x1 PUSH1 0x1 PUSH1 0xA0 SHL SUB MUL NOT AND SWAP1 DUP4 PUSH1 0x1 PUSH1 0x1 PUSH1 0xA0 SHL SUB AND MUL OR SWAP1 SSTORE POP PUSH2 0x1C0 DUP3 ADD MLOAD DUP2 PUSH1 0xC ADD PUSH1 0x14 PUSH2 0x100 EXP DUP2 SLOAD DUP2 PUSH1 0xFF MUL NOT AND SWAP1 DUP4 ISZERO ISZERO MUL OR SWAP1 SSTORE POP SWAP1 POP POP PUSH1 0x0 PUSH1 0x1 PUSH1 0x1 PUSH1 0xA0 SHL SUB AND DUP14 PUSH1 0x1 PUSH1 0x1 PUSH1 0xA0 SHL SUB AND EQ PUSH2 0xA04 JUMPI DUP13 PUSH2 0xA26 JUMP JUMPDEST PUSH32 0x0 JUMPDEST SWAP13 POP PUSH1 0x0 PUSH2 0xA55 PUSH32 0x0 DUP16 DUP16 PUSH2 0x204D JUMP JUMPDEST SWAP1 POP PUSH1 0x0 DUP1 DUP3 PUSH1 0x1 PUSH1 0x1 PUSH1 0xA0 SHL SUB AND PUSH4 0x902F1AC PUSH1 0x40 MLOAD DUP2 PUSH4 0xFFFFFFFF AND PUSH1 0xE0 SHL DUP2 MSTORE PUSH1 0x4 ADD PUSH1 0x60 PUSH1 0x40 MLOAD DUP1 DUP4 SUB DUP2 DUP7 DUP1 EXTCODESIZE ISZERO DUP1 ISZERO PUSH2 0xA93 JUMPI PUSH1 0x0 DUP1 REVERT JUMPDEST POP GAS STATICCALL ISZERO DUP1 ISZERO PUSH2 0xAA7 JUMPI RETURNDATASIZE PUSH1 0x0 DUP1 RETURNDATACOPY RETURNDATASIZE PUSH1 0x0 REVERT JUMPDEST POP POP POP POP PUSH1 0x40 MLOAD RETURNDATASIZE PUSH1 0x1F NOT PUSH1 0x1F DUP3 ADD AND DUP3 ADD DUP1 PUSH1 0x40 MSTORE POP DUP2 ADD SWAP1 PUSH2 0xACB SWAP2 SWAP1 PUSH2 0x2AA5 JUMP JUMPDEST POP PUSH1 0x1 PUSH1 0x1 PUSH1 0x70 SHL SUB AND SWAP2 POP PUSH1 0x1 PUSH1 0x1 PUSH1 0x70 SHL SUB AND SWAP2 POP PUSH1 0x0 PUSH2 0xAF1 DUP15 DUP15 DUP6 DUP6 DUP14 PUSH2 0x20BD JUMP JUMPDEST PUSH1 0x0 SLOAD PUSH1 0x40 MLOAD PUSH4 0x6649D67 PUSH1 0xE0 SHL DUP2 MSTORE SWAP2 SWAP3 POP PUSH1 0x1 PUSH1 0x1 PUSH1 0xA0 SHL SUB AND SWAP1 PUSH4 0x6649D67 SWAP1 PUSH2 0xB24 SWAP1 DUP5 SWAP1 DUP10 SWAP1 PUSH1 0x4 ADD PUSH2 0x33EF JUMP JUMPDEST PUSH1 0x20 PUSH1 0x40 MLOAD DUP1 DUP4 SUB DUP2 PUSH1 0x0 DUP8 DUP1 EXTCODESIZE ISZERO DUP1 ISZERO PUSH2 0xB3E JUMPI PUSH1 0x0 DUP1 REVERT JUMPDEST POP GAS CALL ISZERO DUP1 ISZERO PUSH2 0xB52 JUMPI RETURNDATASIZE PUSH1 0x0 DUP1 RETURNDATACOPY RETURNDATASIZE PUSH1 0x0 REVERT JUMPDEST POP POP POP POP PUSH1 0x40 MLOAD RETURNDATASIZE PUSH1 0x1F NOT PUSH1 0x1F DUP3 ADD AND DUP3 ADD DUP1 PUSH1 0x40 MSTORE POP DUP2 ADD SWAP1 PUSH2 0xB76 SWAP2 SWAP1 PUSH2 0x2B11 JUMP JUMPDEST PUSH1 0x0 DUP8 DUP2 MSTORE PUSH1 0x2 PUSH1 0x20 MSTORE PUSH1 0x40 DUP1 DUP3 KECCAK256 PUSH1 0xB ADD SWAP3 SWAP1 SWAP3 SSTORE SWAP1 MLOAD PUSH1 0xFF PUSH32 0x0 AND SWAP2 DUP9 SWAP2 PUSH32 0x3D87A0DB9F255A83B85D64D1E31D04CA94AC564C50B44F6BA9D52A731E441DC SWAP2 SWAP1 LOG3 POP POP POP POP POP SWAP12 SWAP11 POP POP POP POP POP POP POP POP POP POP POP JUMP JUMPDEST PUSH32 0x0 DUP2 JUMP JUMPDEST PUSH1 0x0 DUP2 DUP2 MSTORE PUSH1 0x2 PUSH1 0x20 MSTORE PUSH1 0x40 SWAP1 KECCAK256 PUSH1 0x1 SLOAD DUP3 LT PUSH2 0xC40 JUMPI PUSH1 0x40 MLOAD PUSH3 0x461BCD PUSH1 0xE5 SHL DUP2 MSTORE PUSH1 0x4 ADD PUSH2 0x3B9 SWAP1 PUSH2 0x3054 JUMP JUMPDEST PUSH1 0xC DUP2 ADD SLOAD PUSH1 0x1 PUSH1 0xA0 SHL SWAP1 DIV PUSH1 0xFF AND ISZERO PUSH2 0xC6C JUMPI PUSH1 0x40 MLOAD PUSH3 0x461BCD PUSH1 0xE5 SHL DUP2 MSTORE PUSH1 0x4 ADD PUSH2 0x3B9 SWAP1 PUSH2 0x2FE6 JUMP JUMPDEST PUSH1 0x0 SLOAD PUSH1 0xB DUP3 ADD SLOAD PUSH1 0x40 MLOAD PUSH4 0x25FA7003 PUSH1 0xE0 SHL DUP2 MSTORE PUSH1 0x1 PUSH1 0x1 PUSH1 0xA0 SHL SUB SWAP1 SWAP3 AND SWAP2 PUSH4 0x25FA7003 SWAP2 PUSH2 0xC9F SWAP2 PUSH1 0x4 ADD PUSH2 0x33E6 JUMP JUMPDEST PUSH1 0x20 PUSH1 0x40 MLOAD DUP1 DUP4 SUB DUP2 DUP7 DUP1 EXTCODESIZE ISZERO DUP1 ISZERO PUSH2 0xCB7 JUMPI PUSH1 0x0 DUP1 REVERT JUMPDEST POP GAS STATICCALL ISZERO DUP1 ISZERO PUSH2 0xCCB JUMPI RETURNDATASIZE PUSH1 0x0 DUP1 RETURNDATACOPY RETURNDATASIZE PUSH1 0x0 REVERT JUMPDEST POP POP POP POP PUSH1 0x40 MLOAD RETURNDATASIZE PUSH1 0x1F NOT PUSH1 0x1F DUP3 ADD AND DUP3 ADD DUP1 PUSH1 0x40 MSTORE POP DUP2 ADD SWAP1 PUSH2 0xCEF SWAP2 SWAP1 PUSH2 0x2A85 JUMP JUMPDEST PUSH2 0xD0B JUMPI PUSH1 0x40 MLOAD PUSH3 0x461BCD PUSH1 0xE5 SHL DUP2 MSTORE PUSH1 0x4 ADD PUSH2 0x3B9 SWAP1 PUSH2 0x31D2 JUMP JUMPDEST DUP1 PUSH1 0x9 ADD SLOAD TIMESTAMP GT ISZERO PUSH2 0xD2F JUMPI PUSH1 0x40 MLOAD PUSH3 0x461BCD PUSH1 0xE5 SHL DUP2 MSTORE PUSH1 0x4 ADD PUSH2 0x3B9 SWAP1 PUSH2 0x319B JUMP JUMPDEST DUP1 SLOAD PUSH1 0x1 DUP3 ADD SLOAD PUSH1 0x0 DUP1 SLOAD PUSH1 0xB DUP6 ADD SLOAD PUSH2 0x100 SWAP1 SWAP5 DIV PUSH1 0x1 PUSH1 0x1 PUSH1 0xA0 SHL SUB SWAP1 DUP2 AND SWAP5 SWAP4 DUP2 AND SWAP4 SWAP2 AND SWAP1 PUSH4 0x4023282B SWAP1 DUP6 ISZERO PUSH2 0xD6A JUMPI DUP6 PUSH2 0xDFB JUMP JUMPDEST PUSH32 0x0 PUSH1 0x1 PUSH1 0x1 PUSH1 0xA0 SHL SUB AND PUSH4 0xAD5C4648 PUSH1 0x40 MLOAD DUP2 PUSH4 0xFFFFFFFF AND PUSH1 0xE0 SHL DUP2 MSTORE PUSH1 0x4 ADD PUSH1 0x20 PUSH1 0x40 MLOAD DUP1 DUP4 SUB DUP2 DUP7 DUP1 EXTCODESIZE ISZERO DUP1 ISZERO PUSH2 0xDC3 JUMPI PUSH1 0x0 DUP1 REVERT JUMPDEST POP GAS STATICCALL ISZERO DUP1 ISZERO PUSH2 0xDD7 JUMPI RETURNDATASIZE PUSH1 0x0 DUP1 RETURNDATACOPY RETURNDATASIZE PUSH1 0x0 REVERT JUMPDEST POP POP POP POP PUSH1 0x40 MLOAD RETURNDATASIZE PUSH1 0x1F NOT PUSH1 0x1F DUP3 ADD AND DUP3 ADD DUP1 PUSH1 0x40 MSTORE POP DUP2 ADD SWAP1 PUSH2 0xDFB SWAP2 SWAP1 PUSH2 0x290C JUMP JUMPDEST DUP8 PUSH1 0x2 ADD SLOAD PUSH1 0x40 MLOAD DUP5 PUSH4 0xFFFFFFFF AND PUSH1 0xE0 SHL DUP2 MSTORE PUSH1 0x4 ADD PUSH2 0xE1E SWAP4 SWAP3 SWAP2 SWAP1 PUSH2 0x3406 JUMP JUMPDEST PUSH1 0x20 PUSH1 0x40 MLOAD DUP1 DUP4 SUB DUP2 DUP7 DUP1 EXTCODESIZE ISZERO DUP1 ISZERO PUSH2 0xE36 JUMPI PUSH1 0x0 DUP1 REVERT JUMPDEST POP GAS STATICCALL ISZERO DUP1 ISZERO PUSH2 0xE4A JUMPI RETURNDATASIZE PUSH1 0x0 DUP1 RETURNDATACOPY RETURNDATASIZE PUSH1 0x0 REVERT JUMPDEST POP POP POP POP PUSH1 0x40 MLOAD RETURNDATASIZE PUSH1 0x1F NOT PUSH1 0x1F DUP3 ADD AND DUP3 ADD DUP1 PUSH1 0x40 MSTORE POP DUP2 ADD SWAP1 PUSH2 0xE6E SWAP2 SWAP1 PUSH2 0x2B11 JUMP JUMPDEST PUSH1 0x0 DUP1 SLOAD PUSH1 0xB DUP8 ADD SLOAD PUSH1 0x3 DUP9 ADD SLOAD PUSH1 0x40 MLOAD PUSH4 0x4023282B PUSH1 0xE0 SHL DUP2 MSTORE SWAP5 SWAP6 POP SWAP3 SWAP4 PUSH1 0x1 PUSH1 0x1 PUSH1 0xA0 SHL SUB SWAP1 SWAP3 AND SWAP3 PUSH4 0x4023282B SWAP3 PUSH2 0xEAF SWAP3 SWAP2 DUP9 SWAP2 PUSH1 0x4 ADD PUSH2 0x3406 JUMP JUMPDEST PUSH1 0x20 PUSH1 0x40 MLOAD DUP1 DUP4 SUB DUP2 DUP7 DUP1 EXTCODESIZE ISZERO DUP1 ISZERO PUSH2 0xEC7 JUMPI PUSH1 0x0 DUP1 REVERT JUMPDEST POP GAS STATICCALL ISZERO DUP1 ISZERO PUSH2 0xEDB JUMPI RETURNDATASIZE PUSH1 0x0 DUP1 RETURNDATACOPY RETURNDATASIZE PUSH1 0x0 REVERT JUMPDEST POP POP POP POP PUSH1 0x40 MLOAD RETURNDATASIZE PUSH1 0x1F NOT PUSH1 0x1F DUP3 ADD AND DUP3 ADD DUP1 PUSH1 0x40 MSTORE POP DUP2 ADD SWAP1 PUSH2 0xEFF SWAP2 SWAP1 PUSH2 0x2B11 JUMP JUMPDEST SWAP1 POP DUP5 PUSH1 0x2 ADD SLOAD DUP2 GT PUSH2 0xF18 JUMPI DUP5 PUSH1 0x3 ADD SLOAD SWAP2 POP PUSH2 0xF1F JUMP JUMPDEST POP PUSH1 0x2 DUP5 ADD SLOAD JUMPDEST PUSH1 0x0 PUSH2 0xF72 PUSH32 0x0 PUSH2 0xF5C DUP9 PUSH1 0x5 ADD SLOAD DUP6 PUSH2 0x21A4 SWAP1 SWAP2 SWAP1 PUSH4 0xFFFFFFFF AND JUMP JUMPDEST DUP2 PUSH2 0xF63 JUMPI INVALID JUMPDEST DUP5 SWAP2 SWAP1 DIV PUSH4 0xFFFFFFFF PUSH2 0x21E1 AND JUMP JUMPDEST SWAP1 POP PUSH1 0x0 PUSH2 0xFC7 PUSH32 0x0 PUSH2 0xFB1 DUP10 PUSH1 0x5 ADD SLOAD DUP8 PUSH2 0x21A4 SWAP1 SWAP2 SWAP1 PUSH4 0xFFFFFFFF AND JUMP JUMPDEST DUP2 PUSH2 0xFB8 JUMPI INVALID JUMPDEST DUP7 SWAP2 SWAP1 DIV PUSH4 0xFFFFFFFF PUSH2 0x21E1 AND JUMP JUMPDEST PUSH1 0xC DUP9 ADD DUP1 SLOAD PUSH1 0xFF PUSH1 0xA0 SHL NOT AND PUSH1 0x1 PUSH1 0xA0 SHL OR SWAP1 SSTORE DUP8 SLOAD SWAP1 SWAP2 POP PUSH1 0xFF SWAP1 DUP2 AND PUSH32 0x0 SWAP1 SWAP2 AND EQ ISZERO PUSH2 0x1023 JUMPI PUSH2 0x101E DUP7 DUP7 DUP6 DUP8 DUP7 DUP7 PUSH2 0x2204 JUMP JUMPDEST PUSH2 0x1096 JUMP JUMPDEST DUP7 SLOAD PUSH32 0x0 PUSH1 0xFF SWAP1 DUP2 AND SWAP2 AND EQ ISZERO PUSH2 0x1096 JUMPI PUSH1 0x0 PUSH2 0x1080 DUP8 DUP8 PUSH32 0x0 PUSH2 0x1EF9 JUMP JUMPDEST SWAP1 POP PUSH2 0x1094 DUP8 DUP8 DUP4 DUP12 PUSH1 0x4 ADD SLOAD DUP8 DUP8 PUSH2 0x2419 JUMP JUMPDEST POP JUMPDEST PUSH1 0x40 MLOAD DUP9 SWAP1 PUSH32 0x524F8E6C94465B4AB34A95B899F86628F3F6445AE120C4DACC9B3A67011DC259 SWAP1 PUSH1 0x0 SWAP1 LOG2 POP POP POP POP POP POP POP POP JUMP JUMPDEST PUSH32 0x0 DUP2 JUMP JUMPDEST PUSH32 0x0 DUP2 JUMP JUMPDEST PUSH1 0x0 PUSH32 0x0 PUSH1 0x1 PUSH1 0x1 PUSH1 0xA0 SHL SUB AND DUP3 PUSH1 0x1 PUSH1 0x1 PUSH1 0xA0 SHL SUB AND EQ DUP1 PUSH2 0x1186 JUMPI POP PUSH32 0x0 PUSH1 0x1 PUSH1 0x1 PUSH1 0xA0 SHL SUB AND DUP3 PUSH1 0x1 PUSH1 0x1 PUSH1 0xA0 SHL SUB AND EQ JUMPDEST PUSH2 0x11A2 JUMPI PUSH1 0x40 MLOAD PUSH3 0x461BCD PUSH1 0xE5 SHL DUP2 MSTORE PUSH1 0x4 ADD PUSH2 0x3B9 SWAP1 PUSH2 0x301D JUMP JUMPDEST CALLER PUSH1 0x1 PUSH1 0x1 PUSH1 0xA0 SHL SUB PUSH32 0x0 AND EQ PUSH2 0x11EA JUMPI PUSH1 0x40 MLOAD PUSH3 0x461BCD PUSH1 0xE5 SHL DUP2 MSTORE PUSH1 0x4 ADD PUSH2 0x3B9 SWAP1 PUSH2 0x2F7A JUMP JUMPDEST DUP10 PUSH1 0x1 PUSH1 0x1 PUSH1 0xA0 SHL SUB AND DUP12 PUSH1 0x1 PUSH1 0x1 PUSH1 0xA0 SHL SUB AND EQ ISZERO PUSH2 0x121C JUMPI PUSH1 0x40 MLOAD PUSH3 0x461BCD PUSH1 0xE5 SHL DUP2 MSTORE PUSH1 0x4 ADD PUSH2 0x3B9 SWAP1 PUSH2 0x2ECA JUMP JUMPDEST DUP10 PUSH1 0x1 PUSH1 0x1 PUSH1 0xA0 SHL SUB AND DUP12 PUSH1 0x1 PUSH1 0x1 PUSH1 0xA0 SHL SUB AND LT PUSH2 0x124D JUMPI PUSH1 0x40 MLOAD PUSH3 0x461BCD PUSH1 0xE5 SHL DUP2 MSTORE PUSH1 0x4 ADD PUSH2 0x3B9 SWAP1 PUSH2 0x2F38 JUMP JUMPDEST PUSH1 0x0 DUP10 GT DUP1 ISZERO PUSH2 0x125D JUMPI POP PUSH1 0x0 DUP9 GT JUMPDEST PUSH2 0x1279 JUMPI PUSH1 0x40 MLOAD PUSH3 0x461BCD PUSH1 0xE5 SHL DUP2 MSTORE PUSH1 0x4 ADD PUSH2 0x3B9 SWAP1 PUSH2 0x308B JUMP JUMPDEST PUSH32 0x0 DUP8 GT ISZERO PUSH2 0x12B9 JUMPI PUSH1 0x40 MLOAD PUSH3 0x461BCD PUSH1 0xE5 SHL DUP2 MSTORE PUSH1 0x4 ADD PUSH2 0x3B9 SWAP1 PUSH2 0x2D7F JUMP JUMPDEST DUP3 TIMESTAMP GT ISZERO PUSH2 0x12D9 JUMPI PUSH1 0x40 MLOAD PUSH3 0x461BCD PUSH1 0xE5 SHL DUP2 MSTORE PUSH1 0x4 ADD PUSH2 0x3B9 SWAP1 PUSH2 0x319B JUMP JUMPDEST PUSH1 0x1E DUP5 GT PUSH2 0x12F9 JUMPI PUSH1 0x40 MLOAD PUSH3 0x461BCD PUSH1 0xE5 SHL DUP2 MSTORE PUSH1 0x4 ADD PUSH2 0x3B9 SWAP1 PUSH2 0x2DE2 JUMP JUMPDEST PUSH1 0x1 PUSH1 0x1 PUSH1 0xA0 SHL SUB DUP12 AND PUSH2 0x132C JUMPI DUP9 SELFBALANCE LT ISZERO PUSH2 0x1327 JUMPI PUSH1 0x40 MLOAD PUSH3 0x461BCD PUSH1 0xE5 SHL DUP2 MSTORE PUSH1 0x4 ADD PUSH2 0x3B9 SWAP1 PUSH2 0x2F01 JUMP JUMPDEST PUSH2 0x13C8 JUMP JUMPDEST PUSH1 0x40 MLOAD PUSH4 0x70A08231 PUSH1 0xE0 SHL DUP2 MSTORE DUP10 SWAP1 PUSH1 0x1 PUSH1 0x1 PUSH1 0xA0 SHL SUB DUP14 AND SWAP1 PUSH4 0x70A08231 SWAP1 PUSH2 0x135A SWAP1 ADDRESS SWAP1 PUSH1 0x4 ADD PUSH2 0x2C49 JUMP JUMPDEST PUSH1 0x20 PUSH1 0x40 MLOAD DUP1 DUP4 SUB DUP2 DUP7 DUP1 EXTCODESIZE ISZERO DUP1 ISZERO PUSH2 0x1372 JUMPI PUSH1 0x0 DUP1 REVERT JUMPDEST POP GAS STATICCALL ISZERO DUP1 ISZERO PUSH2 0x1386 JUMPI RETURNDATASIZE PUSH1 0x0 DUP1 RETURNDATACOPY RETURNDATASIZE PUSH1 0x0 REVERT JUMPDEST POP POP POP POP PUSH1 0x40 MLOAD RETURNDATASIZE PUSH1 0x1F NOT PUSH1 0x1F DUP3 ADD AND DUP3 ADD DUP1 PUSH1 0x40 MSTORE POP DUP2 ADD SWAP1 PUSH2 0x13AA SWAP2 SWAP1 PUSH2 0x2B11 JUMP JUMPDEST LT ISZERO PUSH2 0x13C8 JUMPI PUSH1 0x40 MLOAD PUSH3 0x461BCD PUSH1 0xE5 SHL DUP2 MSTORE PUSH1 0x4 ADD PUSH2 0x3B9 SWAP1 PUSH2 0x30CE JUMP JUMPDEST PUSH1 0x40 MLOAD PUSH4 0x70A08231 PUSH1 0xE0 SHL DUP2 MSTORE DUP9 SWAP1 PUSH1 0x1 PUSH1 0x1 PUSH1 0xA0 SHL SUB DUP13 AND SWAP1 PUSH4 0x70A08231 SWAP1 PUSH2 0x13F6 SWAP1 ADDRESS SWAP1 PUSH1 0x4 ADD PUSH2 0x2C49 JUMP JUMPDEST PUSH1 0x20 PUSH1 0x40 MLOAD DUP1 DUP4 SUB DUP2 DUP7 DUP1 EXTCODESIZE ISZERO DUP1 ISZERO PUSH2 0x140E JUMPI PUSH1 0x0 DUP1 REVERT JUMPDEST POP GAS STATICCALL ISZERO DUP1 ISZERO PUSH2 0x1422 JUMPI RETURNDATASIZE PUSH1 0x0 DUP1 RETURNDATACOPY RETURNDATASIZE PUSH1 0x0 REVERT JUMPDEST POP POP POP POP PUSH1 0x40 MLOAD RETURNDATASIZE PUSH1 0x1F NOT PUSH1 0x1F DUP3 ADD AND DUP3 ADD DUP1 PUSH1 0x40 MSTORE POP DUP2 ADD SWAP1 PUSH2 0x1446 SWAP2 SWAP1 PUSH2 0x2B11 JUMP JUMPDEST LT ISZERO PUSH2 0x1464 JUMPI PUSH1 0x40 MLOAD PUSH3 0x461BCD PUSH1 0xE5 SHL DUP2 MSTORE PUSH1 0x4 ADD PUSH2 0x3B9 SWAP1 PUSH2 0x3214 JUMP JUMPDEST PUSH1 0x0 PUSH2 0x1471 DUP13 DUP13 DUP6 PUSH2 0x1EF9 JUMP JUMPDEST SWAP1 POP PUSH2 0x147B PUSH2 0x2040 JUMP JUMPDEST SWAP2 POP PUSH1 0x40 MLOAD DUP1 PUSH2 0x1E0 ADD PUSH1 0x40 MSTORE DUP1 PUSH32 0x0 PUSH1 0xFF AND DUP2 MSTORE PUSH1 0x20 ADD DUP14 PUSH1 0x1 PUSH1 0x1 PUSH1 0xA0 SHL SUB AND DUP2 MSTORE PUSH1 0x20 ADD DUP13 PUSH1 0x1 PUSH1 0x1 PUSH1 0xA0 SHL SUB AND DUP2 MSTORE PUSH1 0x20 ADD DUP12 DUP2 MSTORE PUSH1 0x20 ADD DUP11 DUP2 MSTORE PUSH1 0x20 ADD PUSH1 0x0 DUP2 MSTORE PUSH1 0x20 ADD DUP10 DUP2 MSTORE PUSH1 0x20 ADD DUP9 DUP2 MSTORE PUSH1 0x20 ADD DUP8 DUP2 MSTORE PUSH1 0x20 ADD DUP3 PUSH1 0x1 PUSH1 0x1 PUSH1 0xA0 SHL SUB AND DUP2 MSTORE PUSH1 0x20 ADD DUP6 DUP2 MSTORE PUSH1 0x20 ADD DUP7 DUP2 MSTORE PUSH1 0x20 ADD PUSH1 0x0 DUP2 MSTORE PUSH1 0x20 ADD DUP5 PUSH1 0x1 PUSH1 0x1 PUSH1 0xA0 SHL SUB AND DUP2 MSTORE PUSH1 0x20 ADD PUSH1 0x0 ISZERO ISZERO DUP2 MSTORE POP PUSH1 0x2 PUSH1 0x0 DUP5 DUP2 MSTORE PUSH1 0x20 ADD SWAP1 DUP2 MSTORE PUSH1 0x20 ADD PUSH1 0x0 KECCAK256 PUSH1 0x0 DUP3 ADD MLOAD DUP2 PUSH1 0x0 ADD PUSH1 0x0 PUSH2 0x100 EXP DUP2 SLOAD DUP2 PUSH1 0xFF MUL NOT AND SWAP1 DUP4 PUSH1 0xFF AND MUL OR SWAP1 SSTORE POP PUSH1 0x20 DUP3 ADD MLOAD DUP2 PUSH1 0x0 ADD PUSH1 0x1 PUSH2 0x100 EXP DUP2 SLOAD DUP2 PUSH1 0x1 PUSH1 0x1 PUSH1 0xA0 SHL SUB MUL NOT AND SWAP1 DUP4 PUSH1 0x1 PUSH1 0x1 PUSH1 0xA0 SHL SUB AND MUL OR SWAP1 SSTORE POP PUSH1 0x40 DUP3 ADD MLOAD DUP2 PUSH1 0x1 ADD PUSH1 0x0 PUSH2 0x100 EXP DUP2 SLOAD DUP2 PUSH1 0x1 PUSH1 0x1 PUSH1 0xA0 SHL SUB MUL NOT AND SWAP1 DUP4 PUSH1 0x1 PUSH1 0x1 PUSH1 0xA0 SHL SUB AND MUL OR SWAP1 SSTORE POP PUSH1 0x60 DUP3 ADD MLOAD DUP2 PUSH1 0x2 ADD SSTORE PUSH1 0x80 DUP3 ADD MLOAD DUP2 PUSH1 0x3 ADD SSTORE PUSH1 0xA0 DUP3 ADD MLOAD DUP2 PUSH1 0x4 ADD SSTORE PUSH1 0xC0 DUP3 ADD MLOAD DUP2 PUSH1 0x5 ADD SSTORE PUSH1 0xE0 DUP3 ADD MLOAD DUP2 PUSH1 0x6 ADD SSTORE PUSH2 0x100 DUP3 ADD MLOAD DUP2 PUSH1 0x7 ADD SSTORE PUSH2 0x120 DUP3 ADD MLOAD DUP2 PUSH1 0x8 ADD PUSH1 0x0 PUSH2 0x100 EXP DUP2 SLOAD DUP2 PUSH1 0x1 PUSH1 0x1 PUSH1 0xA0 SHL SUB MUL NOT AND SWAP1 DUP4 PUSH1 0x1 PUSH1 0x1 PUSH1 0xA0 SHL SUB AND MUL OR SWAP1 SSTORE POP PUSH2 0x140 DUP3 ADD MLOAD DUP2 PUSH1 0x9 ADD SSTORE PUSH2 0x160 DUP3 ADD MLOAD DUP2 PUSH1 0xA ADD SSTORE PUSH2 0x180 DUP3 ADD MLOAD DUP2 PUSH1 0xB ADD SSTORE PUSH2 0x1A0 DUP3 ADD MLOAD DUP2 PUSH1 0xC ADD PUSH1 0x0 PUSH2 0x100 EXP DUP2 SLOAD DUP2 PUSH1 0x1 PUSH1 0x1 PUSH1 0xA0 SHL SUB MUL NOT AND SWAP1 DUP4 PUSH1 0x1 PUSH1 0x1 PUSH1 0xA0 SHL SUB AND MUL OR SWAP1 SSTORE POP PUSH2 0x1C0 DUP3 ADD MLOAD DUP2 PUSH1 0xC ADD PUSH1 0x14 PUSH2 0x100 EXP DUP2 SLOAD DUP2 PUSH1 0xFF MUL NOT AND SWAP1 DUP4 ISZERO ISZERO MUL OR SWAP1 SSTORE POP SWAP1 POP POP PUSH32 0x0 PUSH1 0xFF AND DUP3 PUSH32 0x3D87A0DB9F255A83B85D64D1E31D04CA94AC564C50B44F6BA9D52A731E441DC PUSH1 0x40 MLOAD PUSH1 0x40 MLOAD DUP1 SWAP2 SUB SWAP1 LOG3 PUSH1 0x0 DUP1 DUP3 PUSH1 0x1 PUSH1 0x1 PUSH1 0xA0 SHL SUB AND PUSH4 0x902F1AC PUSH1 0x40 MLOAD DUP2 PUSH4 0xFFFFFFFF AND PUSH1 0xE0 SHL DUP2 MSTORE PUSH1 0x4 ADD PUSH1 0x60 PUSH1 0x40 MLOAD DUP1 DUP4 SUB DUP2 DUP7 DUP1 EXTCODESIZE ISZERO DUP1 ISZERO PUSH2 0x1726 JUMPI PUSH1 0x0 DUP1 REVERT JUMPDEST POP GAS STATICCALL ISZERO DUP1 ISZERO PUSH2 0x173A JUMPI RETURNDATASIZE PUSH1 0x0 DUP1 RETURNDATACOPY RETURNDATASIZE PUSH1 0x0 REVERT JUMPDEST POP POP POP POP PUSH1 0x40 MLOAD RETURNDATASIZE PUSH1 0x1F NOT PUSH1 0x1F DUP3 ADD AND DUP3 ADD DUP1 PUSH1 0x40 MSTORE POP DUP2 ADD SWAP1 PUSH2 0x175E SWAP2 SWAP1 PUSH2 0x2AA5 JUMP JUMPDEST POP PUSH1 0x1 PUSH1 0x1 PUSH1 0x70 SHL SUB AND SWAP2 POP PUSH1 0x1 PUSH1 0x1 PUSH1 0x70 SHL SUB AND SWAP2 POP DUP9 PUSH1 0x0 EQ DUP1 ISZERO PUSH2 0x1783 JUMPI POP DUP8 ISZERO JUMPDEST DUP1 ISZERO PUSH2 0x178D JUMPI POP DUP2 ISZERO JUMPDEST DUP1 ISZERO PUSH2 0x1797 JUMPI POP DUP1 ISZERO JUMPDEST ISZERO PUSH2 0x1806 JUMPI PUSH1 0x0 DUP5 DUP2 MSTORE PUSH1 0x2 PUSH1 0x20 DUP2 SWAP1 MSTORE PUSH1 0x40 SWAP1 SWAP2 KECCAK256 PUSH1 0xC DUP2 ADD DUP1 SLOAD PUSH1 0xFF PUSH1 0xA0 SHL NOT AND PUSH1 0x1 PUSH1 0xA0 SHL OR SWAP1 SSTORE ADD SLOAD PUSH2 0x17D6 SWAP1 DUP16 SWAP1 DUP16 SWAP1 DUP16 SWAP1 DUP16 SWAP1 DUP1 PUSH2 0x2204 JUMP JUMPDEST PUSH1 0x40 MLOAD DUP5 SWAP1 PUSH32 0x524F8E6C94465B4AB34A95B899F86628F3F6445AE120C4DACC9B3A67011DC259 SWAP1 PUSH1 0x0 SWAP1 LOG2 PUSH2 0x18AE JUMP JUMPDEST PUSH1 0x0 PUSH2 0x1815 DUP14 DUP14 DUP6 DUP6 DUP13 PUSH2 0x20BD JUMP JUMPDEST PUSH1 0x0 SLOAD PUSH1 0x40 MLOAD PUSH4 0x6649D67 PUSH1 0xE0 SHL DUP2 MSTORE SWAP2 SWAP3 POP PUSH1 0x1 PUSH1 0x1 PUSH1 0xA0 SHL SUB AND SWAP1 PUSH4 0x6649D67 SWAP1 PUSH2 0x1848 SWAP1 DUP5 SWAP1 DUP9 SWAP1 PUSH1 0x4 ADD PUSH2 0x33EF JUMP JUMPDEST PUSH1 0x20 PUSH1 0x40 MLOAD DUP1 DUP4 SUB DUP2 PUSH1 0x0 DUP8 DUP1 EXTCODESIZE ISZERO DUP1 ISZERO PUSH2 0x1862 JUMPI PUSH1 0x0 DUP1 REVERT JUMPDEST POP GAS CALL ISZERO DUP1 ISZERO PUSH2 0x1876 JUMPI RETURNDATASIZE PUSH1 0x0 DUP1 RETURNDATACOPY RETURNDATASIZE PUSH1 0x0 REVERT JUMPDEST POP POP POP POP PUSH1 0x40 MLOAD RETURNDATASIZE PUSH1 0x1F NOT PUSH1 0x1F DUP3 ADD AND DUP3 ADD DUP1 PUSH1 0x40 MSTORE POP DUP2 ADD SWAP1 PUSH2 0x189A SWAP2 SWAP1 PUSH2 0x2B11 JUMP JUMPDEST PUSH1 0x0 DUP7 DUP2 MSTORE PUSH1 0x2 PUSH1 0x20 MSTORE PUSH1 0x40 SWAP1 KECCAK256 PUSH1 0xB ADD SSTORE POP JUMPDEST POP POP POP SWAP11 SWAP10 POP POP POP POP POP POP POP POP POP POP JUMP JUMPDEST PUSH32 0x0 DUP2 JUMP JUMPDEST PUSH1 0x0 DUP2 DUP2 MSTORE PUSH1 0x2 PUSH1 0x20 MSTORE PUSH1 0x40 SWAP1 KECCAK256 PUSH1 0x9 DUP2 ADD SLOAD TIMESTAMP GT ISZERO PUSH2 0x1915 JUMPI PUSH1 0x40 MLOAD PUSH3 0x461BCD PUSH1 0xE5 SHL DUP2 MSTORE PUSH1 0x4 ADD PUSH2 0x3B9 SWAP1 PUSH2 0x319B JUMP JUMPDEST PUSH1 0x0 SLOAD PUSH1 0xB DUP3 ADD SLOAD PUSH1 0x40 MLOAD PUSH4 0x25FA7003 PUSH1 0xE0 SHL DUP2 MSTORE PUSH1 0x1 PUSH1 0x1 PUSH1 0xA0 SHL SUB SWAP1 SWAP3 AND SWAP2 PUSH4 0x25FA7003 SWAP2 PUSH2 0x1948 SWAP2 PUSH1 0x4 ADD PUSH2 0x33E6 JUMP JUMPDEST PUSH1 0x20 PUSH1 0x40 MLOAD DUP1 DUP4 SUB DUP2 DUP7 DUP1 EXTCODESIZE ISZERO DUP1 ISZERO PUSH2 0x1960 JUMPI PUSH1 0x0 DUP1 REVERT JUMPDEST POP GAS STATICCALL ISZERO DUP1 ISZERO PUSH2 0x1974 JUMPI RETURNDATASIZE PUSH1 0x0 DUP1 RETURNDATACOPY RETURNDATASIZE PUSH1 0x0 REVERT JUMPDEST POP POP POP POP PUSH1 0x40 MLOAD RETURNDATASIZE PUSH1 0x1F NOT PUSH1 0x1F DUP3 ADD AND DUP3 ADD DUP1 PUSH1 0x40 MSTORE POP DUP2 ADD SWAP1 PUSH2 0x1998 SWAP2 SWAP1 PUSH2 0x2A85 JUMP JUMPDEST ISZERO PUSH2 0x19B5 JUMPI PUSH1 0x40 MLOAD PUSH3 0x461BCD PUSH1 0xE5 SHL DUP2 MSTORE PUSH1 0x4 ADD PUSH2 0x3B9 SWAP1 PUSH2 0x2FB1 JUMP JUMPDEST PUSH1 0x0 PUSH2 0x1A17 PUSH32 0x0 PUSH2 0x1A0B PUSH32 0x0 GASPRICE PUSH4 0xFFFFFFFF PUSH2 0x21A4 AND JUMP JUMPDEST SWAP1 PUSH4 0xFFFFFFFF PUSH2 0x26D9 AND JUMP JUMPDEST SWAP1 POP PUSH1 0x0 DUP1 DUP4 PUSH1 0x8 ADD PUSH1 0x0 SWAP1 SLOAD SWAP1 PUSH2 0x100 EXP SWAP1 DIV PUSH1 0x1 PUSH1 0x1 PUSH1 0xA0 SHL SUB AND PUSH1 0x1 PUSH1 0x1 PUSH1 0xA0 SHL SUB AND PUSH4 0x902F1AC PUSH1 0x40 MLOAD DUP2 PUSH4 0xFFFFFFFF AND PUSH1 0xE0 SHL DUP2 MSTORE PUSH1 0x4 ADD PUSH1 0x60 PUSH1 0x40 MLOAD DUP1 DUP4 SUB DUP2 DUP7 DUP1 EXTCODESIZE ISZERO DUP1 ISZERO PUSH2 0x1A6C JUMPI PUSH1 0x0 DUP1 REVERT JUMPDEST POP GAS STATICCALL ISZERO DUP1 ISZERO PUSH2 0x1A80 JUMPI RETURNDATASIZE PUSH1 0x0 DUP1 RETURNDATACOPY RETURNDATASIZE PUSH1 0x0 REVERT JUMPDEST POP POP POP POP PUSH1 0x40 MLOAD RETURNDATASIZE PUSH1 0x1F NOT PUSH1 0x1F DUP3 ADD AND DUP3 ADD DUP1 PUSH1 0x40 MSTORE POP DUP2 ADD SWAP1 PUSH2 0x1AA4 SWAP2 SWAP1 PUSH2 0x2AA5 JUMP JUMPDEST POP PUSH1 0x1 PUSH1 0x1 PUSH1 0x70 SHL SUB AND SWAP2 POP PUSH1 0x1 PUSH1 0x1 PUSH1 0x70 SHL SUB AND SWAP2 POP DUP4 PUSH1 0x6 ADD SLOAD DUP3 LT ISZERO DUP1 ISZERO PUSH2 0x1AD3 JUMPI POP DUP4 PUSH1 0x7 ADD SLOAD DUP2 LT ISZERO JUMPDEST PUSH2 0x1AEF JUMPI PUSH1 0x40 MLOAD PUSH3 0x461BCD PUSH1 0xE5 SHL DUP2 MSTORE PUSH1 0x4 ADD PUSH2 0x3B9 SWAP1 PUSH2 0x32D1 JUMP JUMPDEST PUSH1 0x0 SLOAD PUSH1 0xB DUP6 ADD SLOAD PUSH1 0x40 MLOAD PUSH4 0x4155C485 PUSH1 0xE1 SHL DUP2 MSTORE PUSH1 0x1 PUSH1 0x1 PUSH1 0xA0 SHL SUB SWAP1 SWAP3 AND SWAP2 PUSH4 0x82AB890A SWAP2 PUSH2 0x1B22 SWAP2 PUSH1 0x4 ADD PUSH2 0x33E6 JUMP JUMPDEST PUSH1 0x0 PUSH1 0x40 MLOAD DUP1 DUP4 SUB DUP2 PUSH1 0x0 DUP8 DUP1 EXTCODESIZE ISZERO DUP1 ISZERO PUSH2 0x1B3C JUMPI PUSH1 0x0 DUP1 REVERT JUMPDEST POP GAS CALL ISZERO DUP1 ISZERO PUSH2 0x1B50 JUMPI RETURNDATASIZE PUSH1 0x0 DUP1 RETURNDATACOPY RETURNDATASIZE PUSH1 0x0 REVERT JUMPDEST POP POP POP POP DUP3 SELFBALANCE LT PUSH2 0x1B65 JUMPI PUSH2 0x1B65 CALLER DUP5 PUSH2 0x1D80 JUMP JUMPDEST POP POP POP POP POP JUMP JUMPDEST CALLER PUSH1 0x1 PUSH1 0x1 PUSH1 0xA0 SHL SUB PUSH32 0x0 AND EQ PUSH2 0x1BB4 JUMPI PUSH1 0x40 MLOAD PUSH3 0x461BCD PUSH1 0xE5 SHL DUP2 MSTORE PUSH1 0x4 ADD PUSH2 0x3B9 SWAP1 PUSH2 0x2F7A JUMP JUMPDEST PUSH2 0x1BDE PUSH32 0x0 DUP3 PUSH2 0x1D80 JUMP JUMPDEST POP JUMP JUMPDEST PUSH32 0x0 DUP2 JUMP JUMPDEST CALLER PUSH1 0x1 PUSH1 0x1 PUSH1 0xA0 SHL SUB PUSH32 0x0 AND EQ PUSH2 0x1C4D JUMPI PUSH1 0x40 MLOAD PUSH3 0x461BCD PUSH1 0xE5 SHL DUP2 MSTORE PUSH1 0x4 ADD PUSH2 0x3B9 SWAP1 PUSH2 0x2F7A JUMP JUMPDEST PUSH2 0x1C78 DUP3 PUSH32 0x0 DUP4 PUSH2 0x1E12 JUMP JUMPDEST POP POP JUMP JUMPDEST PUSH32 0x0 DUP2 JUMP JUMPDEST PUSH2 0x1CA8 PUSH2 0x286D JUMP JUMPDEST POP PUSH1 0x0 SWAP1 DUP2 MSTORE PUSH1 0x2 PUSH1 0x20 DUP2 DUP2 MSTORE PUSH1 0x40 SWAP3 DUP4 SWAP1 KECCAK256 DUP4 MLOAD PUSH2 0x1E0 DUP2 ADD DUP6 MSTORE DUP2 SLOAD PUSH1 0xFF DUP1 DUP3 AND DUP4 MSTORE PUSH1 0x1 PUSH1 0x1 PUSH1 0xA0 SHL SUB PUSH2 0x100 SWAP3 DUP4 SWAP1 DIV DUP2 AND SWAP6 DUP5 ADD SWAP6 SWAP1 SWAP6 MSTORE PUSH1 0x1 DUP5 ADD SLOAD DUP6 AND SWAP7 DUP4 ADD SWAP7 SWAP1 SWAP7 MSTORE SWAP4 DUP3 ADD SLOAD PUSH1 0x60 DUP3 ADD MSTORE PUSH1 0x3 DUP3 ADD SLOAD PUSH1 0x80 DUP3 ADD MSTORE PUSH1 0x4 DUP3 ADD SLOAD PUSH1 0xA0 DUP3 ADD MSTORE PUSH1 0x5 DUP3 ADD SLOAD PUSH1 0xC0 DUP3 ADD MSTORE PUSH1 0x6 DUP3 ADD SLOAD PUSH1 0xE0 DUP3 ADD MSTORE PUSH1 0x7 DUP3 ADD SLOAD SWAP4 DUP2 ADD SWAP4 SWAP1 SWAP4 MSTORE PUSH1 0x8 DUP2 ADD SLOAD DUP3 AND PUSH2 0x120 DUP5 ADD MSTORE PUSH1 0x9 DUP2 ADD SLOAD PUSH2 0x140 DUP5 ADD MSTORE PUSH1 0xA DUP2 ADD SLOAD PUSH2 0x160 DUP5 ADD MSTORE PUSH1 0xB DUP2 ADD SLOAD PUSH2 0x180 DUP5 ADD MSTORE PUSH1 0xC ADD SLOAD SWAP1 DUP2 AND PUSH2 0x1A0 DUP4 ADD MSTORE PUSH1 0x1 PUSH1 0xA0 SHL SWAP1 DIV SWAP1 SWAP2 AND ISZERO ISZERO PUSH2 0x1C0 DUP3 ADD MSTORE SWAP1 JUMP JUMPDEST PUSH1 0x40 DUP1 MLOAD PUSH1 0x0 DUP1 DUP3 MSTORE PUSH1 0x20 DUP3 ADD SWAP1 SWAP3 MSTORE PUSH1 0x1 PUSH1 0x1 PUSH1 0xA0 SHL SUB DUP5 AND SWAP1 DUP4 SWAP1 PUSH1 0x40 MLOAD PUSH2 0x1DAA SWAP2 SWAP1 PUSH2 0x2BBA JUMP JUMPDEST PUSH1 0x0 PUSH1 0x40 MLOAD DUP1 DUP4 SUB DUP2 DUP6 DUP8 GAS CALL SWAP3 POP POP POP RETURNDATASIZE DUP1 PUSH1 0x0 DUP2 EQ PUSH2 0x1DE7 JUMPI PUSH1 0x40 MLOAD SWAP2 POP PUSH1 0x1F NOT PUSH1 0x3F RETURNDATASIZE ADD AND DUP3 ADD PUSH1 0x40 MSTORE RETURNDATASIZE DUP3 MSTORE RETURNDATASIZE PUSH1 0x0 PUSH1 0x20 DUP5 ADD RETURNDATACOPY PUSH2 0x1DEC JUMP JUMPDEST PUSH1 0x60 SWAP2 POP JUMPDEST POP POP SWAP1 POP DUP1 PUSH2 0x1E0D JUMPI PUSH1 0x40 MLOAD PUSH3 0x461BCD PUSH1 0xE5 SHL DUP2 MSTORE PUSH1 0x4 ADD PUSH2 0x3B9 SWAP1 PUSH2 0x3257 JUMP JUMPDEST POP POP POP JUMP JUMPDEST PUSH1 0x0 PUSH1 0x60 DUP5 PUSH1 0x1 PUSH1 0x1 PUSH1 0xA0 SHL SUB AND PUSH4 0xA9059CBB DUP6 DUP6 PUSH1 0x40 MLOAD PUSH1 0x24 ADD PUSH2 0x1E38 SWAP3 SWAP2 SWAP1 PUSH2 0x2D00 JUMP JUMPDEST PUSH1 0x40 MLOAD PUSH1 0x20 DUP2 DUP4 SUB SUB DUP2 MSTORE SWAP1 PUSH1 0x40 MSTORE SWAP1 PUSH1 0xE0 SHL PUSH1 0x20 DUP3 ADD DUP1 MLOAD PUSH1 0x1 PUSH1 0x1 PUSH1 0xE0 SHL SUB DUP4 DUP2 DUP4 AND OR DUP4 MSTORE POP POP POP POP PUSH1 0x40 MLOAD PUSH2 0x1E71 SWAP2 SWAP1 PUSH2 0x2BBA JUMP JUMPDEST PUSH1 0x0 PUSH1 0x40 MLOAD DUP1 DUP4 SUB DUP2 PUSH1 0x0 DUP7 GAS CALL SWAP2 POP POP RETURNDATASIZE DUP1 PUSH1 0x0 DUP2 EQ PUSH2 0x1EAE JUMPI PUSH1 0x40 MLOAD SWAP2 POP PUSH1 0x1F NOT PUSH1 0x3F RETURNDATASIZE ADD AND DUP3 ADD PUSH1 0x40 MSTORE RETURNDATASIZE DUP3 MSTORE RETURNDATASIZE PUSH1 0x0 PUSH1 0x20 DUP5 ADD RETURNDATACOPY PUSH2 0x1EB3 JUMP JUMPDEST PUSH1 0x60 SWAP2 POP JUMPDEST POP SWAP2 POP SWAP2 POP DUP2 DUP1 ISZERO PUSH2 0x1EDD JUMPI POP DUP1 MLOAD ISZERO DUP1 PUSH2 0x1EDD JUMPI POP DUP1 DUP1 PUSH1 0x20 ADD SWAP1 MLOAD DUP2 ADD SWAP1 PUSH2 0x1EDD SWAP2 SWAP1 PUSH2 0x2A85 JUMP JUMPDEST PUSH2 0x1B65 JUMPI PUSH1 0x40 MLOAD PUSH3 0x461BCD PUSH1 0xE5 SHL DUP2 MSTORE PUSH1 0x4 ADD PUSH2 0x3B9 SWAP1 PUSH2 0x2D48 JUMP JUMPDEST PUSH1 0x0 PUSH32 0x0 PUSH1 0x1 PUSH1 0x1 PUSH1 0xA0 SHL SUB AND DUP3 PUSH1 0x1 PUSH1 0x1 PUSH1 0xA0 SHL SUB AND EQ DUP1 PUSH2 0x1F6C JUMPI POP PUSH32 0x0 PUSH1 0x1 PUSH1 0x1 PUSH1 0xA0 SHL SUB AND DUP3 PUSH1 0x1 PUSH1 0x1 PUSH1 0xA0 SHL SUB AND EQ JUMPDEST PUSH2 0x1F88 JUMPI PUSH1 0x40 MLOAD PUSH3 0x461BCD PUSH1 0xE5 SHL DUP2 MSTORE PUSH1 0x4 ADD PUSH2 0x3B9 SWAP1 PUSH2 0x301D JUMP JUMPDEST PUSH1 0x1 PUSH1 0x1 PUSH1 0xA0 SHL SUB DUP5 AND PUSH2 0x1FBA JUMPI PUSH32 0x0 SWAP4 POP JUMPDEST PUSH1 0x40 MLOAD PUSH4 0xE6A43905 PUSH1 0xE0 SHL DUP2 MSTORE PUSH1 0x1 PUSH1 0x1 PUSH1 0xA0 SHL SUB DUP4 AND SWAP1 PUSH4 0xE6A43905 SWAP1 PUSH2 0x1FE8 SWAP1 DUP8 SWAP1 DUP8 SWAP1 PUSH1 0x4 ADD PUSH2 0x2C5D JUMP JUMPDEST PUSH1 0x20 PUSH1 0x40 MLOAD DUP1 DUP4 SUB DUP2 DUP7 DUP1 EXTCODESIZE ISZERO DUP1 ISZERO PUSH2 0x2000 JUMPI PUSH1 0x0 DUP1 REVERT JUMPDEST POP GAS STATICCALL ISZERO DUP1 ISZERO PUSH2 0x2014 JUMPI RETURNDATASIZE PUSH1 0x0 DUP1 RETURNDATACOPY RETURNDATASIZE PUSH1 0x0 REVERT JUMPDEST POP POP POP POP PUSH1 0x40 MLOAD RETURNDATASIZE PUSH1 0x1F NOT PUSH1 0x1F DUP3 ADD AND DUP3 ADD DUP1 PUSH1 0x40 MSTORE POP DUP2 ADD SWAP1 PUSH2 0x2038 SWAP2 SWAP1 PUSH2 0x290C JUMP JUMPDEST SWAP5 SWAP4 POP POP POP POP JUMP JUMPDEST PUSH1 0x1 DUP1 SLOAD DUP1 DUP3 ADD SWAP1 SWAP2 SSTORE SWAP1 JUMP JUMPDEST PUSH1 0x0 DUP1 PUSH1 0x0 PUSH2 0x205C DUP6 DUP6 PUSH2 0x26FC JUMP JUMPDEST SWAP2 POP SWAP2 POP DUP6 DUP3 DUP3 PUSH1 0x40 MLOAD PUSH1 0x20 ADD PUSH2 0x2074 SWAP3 SWAP2 SWAP1 PUSH2 0x2B93 JUMP JUMPDEST PUSH1 0x40 MLOAD PUSH1 0x20 DUP2 DUP4 SUB SUB DUP2 MSTORE SWAP1 PUSH1 0x40 MSTORE DUP1 MLOAD SWAP1 PUSH1 0x20 ADD KECCAK256 PUSH1 0x40 MLOAD PUSH1 0x20 ADD PUSH2 0x209B SWAP3 SWAP2 SWAP1 PUSH2 0x2BF3 JUMP JUMPDEST PUSH1 0x40 DUP1 MLOAD PUSH1 0x1F NOT DUP2 DUP5 SUB ADD DUP2 MSTORE SWAP2 SWAP1 MSTORE DUP1 MLOAD PUSH1 0x20 SWAP1 SWAP2 ADD KECCAK256 SWAP7 SWAP6 POP POP POP POP POP POP JUMP JUMPDEST PUSH1 0x0 DUP1 DUP5 GT DUP1 ISZERO PUSH2 0x20CE JUMPI POP PUSH1 0x0 DUP4 GT JUMPDEST ISZERO PUSH2 0x2198 JUMPI PUSH1 0x0 PUSH2 0x20E5 DUP6 DUP6 PUSH4 0xFFFFFFFF PUSH2 0x26D9 AND JUMP JUMPDEST PUSH2 0x2125 PUSH32 0x0 PUSH2 0x2119 DUP11 DUP11 PUSH4 0xFFFFFFFF PUSH2 0x26D9 AND JUMP JUMPDEST SWAP1 PUSH4 0xFFFFFFFF PUSH2 0x21A4 AND JUMP JUMPDEST DUP2 PUSH2 0x212C JUMPI INVALID JUMPDEST DIV SWAP1 POP PUSH2 0x3E8 DUP2 LT ISZERO PUSH2 0x2142 JUMPI PUSH1 0x1E SWAP2 POP PUSH2 0x2180 JUMP JUMPDEST PUSH2 0x9C4 DUP2 LT ISZERO PUSH2 0x2155 JUMPI PUSH1 0x3C SWAP2 POP PUSH2 0x2180 JUMP JUMPDEST PUSH2 0x1388 DUP2 LT ISZERO PUSH2 0x2168 JUMPI PUSH1 0x5A SWAP2 POP PUSH2 0x2180 JUMP JUMPDEST PUSH2 0x2710 DUP2 LT ISZERO PUSH2 0x217B JUMPI PUSH1 0x78 SWAP2 POP PUSH2 0x2180 JUMP JUMPDEST PUSH1 0x96 SWAP2 POP JUMPDEST DUP3 DUP3 GT ISZERO PUSH2 0x218E JUMPI DUP3 PUSH2 0x2190 JUMP JUMPDEST DUP2 JUMPDEST SWAP2 POP POP PUSH2 0x219B JUMP JUMPDEST POP DUP1 JUMPDEST SWAP6 SWAP5 POP POP POP POP POP JUMP JUMPDEST PUSH1 0x0 DUP2 ISZERO DUP1 PUSH2 0x21BF JUMPI POP POP DUP1 DUP3 MUL DUP3 DUP3 DUP3 DUP2 PUSH2 0x21BC JUMPI INVALID JUMPDEST DIV EQ JUMPDEST PUSH2 0x21DB JUMPI PUSH1 0x40 MLOAD PUSH3 0x461BCD PUSH1 0xE5 SHL DUP2 MSTORE PUSH1 0x4 ADD PUSH2 0x3B9 SWAP1 PUSH2 0x2DB4 JUMP JUMPDEST SWAP3 SWAP2 POP POP JUMP JUMPDEST DUP1 DUP3 SUB DUP3 DUP2 GT ISZERO PUSH2 0x21DB JUMPI PUSH1 0x40 MLOAD PUSH3 0x461BCD PUSH1 0xE5 SHL DUP2 MSTORE PUSH1 0x4 ADD PUSH2 0x3B9 SWAP1 PUSH2 0x2D19 JUMP JUMPDEST PUSH1 0x0 DUP1 DUP1 PUSH1 0x1 PUSH1 0x1 PUSH1 0xA0 SHL SUB DUP10 AND PUSH2 0x22AE JUMPI PUSH32 0x0 PUSH1 0x1 PUSH1 0x1 PUSH1 0xA0 SHL SUB AND PUSH4 0xD0E30DB0 DUP9 PUSH1 0x40 MLOAD DUP3 PUSH4 0xFFFFFFFF AND PUSH1 0xE0 SHL DUP2 MSTORE PUSH1 0x4 ADD PUSH1 0x0 PUSH1 0x40 MLOAD DUP1 DUP4 SUB DUP2 DUP6 DUP9 DUP1 EXTCODESIZE ISZERO DUP1 ISZERO PUSH2 0x2271 JUMPI PUSH1 0x0 DUP1 REVERT JUMPDEST POP GAS CALL ISZERO DUP1 ISZERO PUSH2 0x2285 JUMPI RETURNDATASIZE PUSH1 0x0 DUP1 RETURNDATACOPY RETURNDATASIZE PUSH1 0x0 REVERT JUMPDEST POP POP POP POP POP PUSH32 0x0 SWAP9 POP JUMPDEST PUSH2 0x22D9 DUP10 PUSH32 0x0 DUP10 PUSH2 0x2786 JUMP JUMPDEST PUSH2 0x2304 DUP9 PUSH32 0x0 DUP9 PUSH2 0x2786 JUMP JUMPDEST PUSH1 0x40 MLOAD PUSH3 0xE8E337 PUSH1 0xE8 SHL DUP2 MSTORE PUSH1 0x1 PUSH1 0x1 PUSH1 0xA0 SHL SUB PUSH32 0x0 AND SWAP1 PUSH4 0xE8E33700 SWAP1 PUSH2 0x235D SWAP1 DUP13 SWAP1 DUP13 SWAP1 DUP13 SWAP1 DUP13 SWAP1 DUP13 SWAP1 DUP13 SWAP1 ADDRESS SWAP1 TIMESTAMP SWAP1 PUSH1 0x4 ADD PUSH2 0x2CB7 JUMP JUMPDEST PUSH1 0x60 PUSH1 0x40 MLOAD DUP1 DUP4 SUB DUP2 PUSH1 0x0 DUP8 DUP1 EXTCODESIZE ISZERO DUP1 ISZERO PUSH2 0x2377 JUMPI PUSH1 0x0 DUP1 REVERT JUMPDEST POP GAS CALL ISZERO DUP1 ISZERO PUSH2 0x238B JUMPI RETURNDATASIZE PUSH1 0x0 DUP1 RETURNDATACOPY RETURNDATASIZE PUSH1 0x0 REVERT JUMPDEST POP POP POP POP PUSH1 0x40 MLOAD RETURNDATASIZE PUSH1 0x1F NOT PUSH1 0x1F DUP3 ADD AND DUP3 ADD DUP1 PUSH1 0x40 MSTORE POP DUP2 ADD SWAP1 PUSH2 0x23AF SWAP2 SWAP1 PUSH2 0x2B4C JUMP JUMPDEST SWAP2 SWAP5 POP SWAP3 POP SWAP1 POP PUSH2 0x23E2 DUP10 PUSH32 0x0 PUSH1 0x0 PUSH2 0x2786 JUMP JUMPDEST PUSH2 0x240E DUP9 PUSH32 0x0 PUSH1 0x0 PUSH2 0x2786 JUMP JUMPDEST POP POP POP POP POP POP POP POP POP JUMP JUMPDEST PUSH1 0x1 PUSH1 0x1 PUSH1 0xA0 SHL SUB DUP7 AND ISZERO PUSH2 0x242E JUMPI DUP6 PUSH2 0x2450 JUMP JUMPDEST PUSH32 0x0 JUMPDEST SWAP6 POP PUSH2 0x247D DUP5 PUSH32 0x0 DUP6 PUSH2 0x2786 JUMP JUMPDEST PUSH1 0x0 DUP1 PUSH32 0x0 PUSH1 0x1 PUSH1 0x1 PUSH1 0xA0 SHL SUB AND PUSH4 0xBAA2ABDE DUP10 DUP10 DUP9 DUP9 DUP9 ADDRESS TIMESTAMP PUSH1 0x40 MLOAD DUP9 PUSH4 0xFFFFFFFF AND PUSH1 0xE0 SHL DUP2 MSTORE PUSH1 0x4 ADD PUSH2 0x24D8 SWAP8 SWAP7 SWAP6 SWAP5 SWAP4 SWAP3 SWAP2 SWAP1 PUSH2 0x2C77 JUMP JUMPDEST PUSH1 0x40 DUP1 MLOAD DUP1 DUP4 SUB DUP2 PUSH1 0x0 DUP8 DUP1 EXTCODESIZE ISZERO DUP1 ISZERO PUSH2 0x24F1 JUMPI PUSH1 0x0 DUP1 REVERT JUMPDEST POP GAS CALL ISZERO DUP1 ISZERO PUSH2 0x2505 JUMPI RETURNDATASIZE PUSH1 0x0 DUP1 RETURNDATACOPY RETURNDATASIZE PUSH1 0x0 REVERT JUMPDEST POP POP POP POP PUSH1 0x40 MLOAD RETURNDATASIZE PUSH1 0x1F NOT PUSH1 0x1F DUP3 ADD AND DUP3 ADD DUP1 PUSH1 0x40 MSTORE POP DUP2 ADD SWAP1 PUSH2 0x2529 SWAP2 SWAP1 PUSH2 0x2B29 JUMP JUMPDEST SWAP2 POP SWAP2 POP PUSH2 0x2559 DUP7 PUSH32 0x0 PUSH1 0x0 PUSH2 0x2786 JUMP JUMPDEST PUSH32 0x0 PUSH1 0x1 PUSH1 0x1 PUSH1 0xA0 SHL SUB AND DUP9 PUSH1 0x1 PUSH1 0x1 PUSH1 0xA0 SHL SUB AND EQ ISZERO PUSH2 0x2616 JUMPI PUSH1 0x40 MLOAD PUSH4 0x2E1A7D4D PUSH1 0xE0 SHL DUP2 MSTORE PUSH1 0x1 PUSH1 0x1 PUSH1 0xA0 SHL SUB PUSH32 0x0 AND SWAP1 PUSH4 0x2E1A7D4D SWAP1 PUSH2 0x25DF SWAP1 DUP6 SWAP1 PUSH1 0x4 ADD PUSH2 0x33E6 JUMP JUMPDEST PUSH1 0x0 PUSH1 0x40 MLOAD DUP1 DUP4 SUB DUP2 PUSH1 0x0 DUP8 DUP1 EXTCODESIZE ISZERO DUP1 ISZERO PUSH2 0x25F9 JUMPI PUSH1 0x0 DUP1 REVERT JUMPDEST POP GAS CALL ISZERO DUP1 ISZERO PUSH2 0x260D JUMPI RETURNDATASIZE PUSH1 0x0 DUP1 RETURNDATACOPY RETURNDATASIZE PUSH1 0x0 REVERT JUMPDEST POP POP POP POP PUSH2 0x26CF JUMP JUMPDEST PUSH32 0x0 PUSH1 0x1 PUSH1 0x1 PUSH1 0xA0 SHL SUB AND DUP8 PUSH1 0x1 PUSH1 0x1 PUSH1 0xA0 SHL SUB AND EQ ISZERO PUSH2 0x26CF JUMPI PUSH1 0x40 MLOAD PUSH4 0x2E1A7D4D PUSH1 0xE0 SHL DUP2 MSTORE PUSH1 0x1 PUSH1 0x1 PUSH1 0xA0 SHL SUB PUSH32 0x0 AND SWAP1 PUSH4 0x2E1A7D4D SWAP1 PUSH2 0x269C SWAP1 DUP5 SWAP1 PUSH1 0x4 ADD PUSH2 0x33E6 JUMP JUMPDEST PUSH1 0x0 PUSH1 0x40 MLOAD DUP1 DUP4 SUB DUP2 PUSH1 0x0 DUP8 DUP1 EXTCODESIZE ISZERO DUP1 ISZERO PUSH2 0x26B6 JUMPI PUSH1 0x0 DUP1 REVERT JUMPDEST POP GAS CALL ISZERO DUP1 ISZERO PUSH2 0x26CA JUMPI RETURNDATASIZE PUSH1 0x0 DUP1 RETURNDATACOPY RETURNDATASIZE PUSH1 0x0 REVERT JUMPDEST POP POP POP POP JUMPDEST POP POP POP POP POP POP POP POP JUMP JUMPDEST DUP1 DUP3 ADD DUP3 DUP2 LT ISZERO PUSH2 0x21DB JUMPI PUSH1 0x40 MLOAD PUSH3 0x461BCD PUSH1 0xE5 SHL DUP2 MSTORE PUSH1 0x4 ADD PUSH2 0x3B9 SWAP1 PUSH2 0x2E23 JUMP JUMPDEST PUSH1 0x0 DUP1 DUP3 PUSH1 0x1 PUSH1 0x1 PUSH1 0xA0 SHL SUB AND DUP5 PUSH1 0x1 PUSH1 0x1 PUSH1 0xA0 SHL SUB AND EQ ISZERO PUSH2 0x2731 JUMPI PUSH1 0x40 MLOAD PUSH3 0x461BCD PUSH1 0xE5 SHL DUP2 MSTORE PUSH1 0x4 ADD PUSH2 0x3B9 SWAP1 PUSH2 0x2E88 JUMP JUMPDEST DUP3 PUSH1 0x1 PUSH1 0x1 PUSH1 0xA0 SHL SUB AND DUP5 PUSH1 0x1 PUSH1 0x1 PUSH1 0xA0 SHL SUB AND LT PUSH2 0x2751 JUMPI DUP3 DUP5 PUSH2 0x2754 JUMP JUMPDEST DUP4 DUP4 JUMPDEST SWAP1 SWAP3 POP SWAP1 POP PUSH1 0x1 PUSH1 0x1 PUSH1 0xA0 SHL SUB DUP3 AND PUSH2 0x277F JUMPI PUSH1 0x40 MLOAD PUSH3 0x461BCD PUSH1 0xE5 SHL DUP2 MSTORE PUSH1 0x4 ADD PUSH2 0x3B9 SWAP1 PUSH2 0x329A JUMP JUMPDEST SWAP3 POP SWAP3 SWAP1 POP JUMP JUMPDEST PUSH1 0x0 PUSH1 0x60 DUP5 PUSH1 0x1 PUSH1 0x1 PUSH1 0xA0 SHL SUB AND PUSH4 0x95EA7B3 DUP6 DUP6 PUSH1 0x40 MLOAD PUSH1 0x24 ADD PUSH2 0x27AC SWAP3 SWAP2 SWAP1 PUSH2 0x2D00 JUMP JUMPDEST PUSH1 0x40 MLOAD PUSH1 0x20 DUP2 DUP4 SUB SUB DUP2 MSTORE SWAP1 PUSH1 0x40 MSTORE SWAP1 PUSH1 0xE0 SHL PUSH1 0x20 DUP3 ADD DUP1 MLOAD PUSH1 0x1 PUSH1 0x1 PUSH1 0xE0 SHL SUB DUP4 DUP2 DUP4 AND OR DUP4 MSTORE POP POP POP POP PUSH1 0x40 MLOAD PUSH2 0x27E5 SWAP2 SWAP1 PUSH2 0x2BBA JUMP JUMPDEST PUSH1 0x0 PUSH1 0x40 MLOAD DUP1 DUP4 SUB DUP2 PUSH1 0x0 DUP7 GAS CALL SWAP2 POP POP RETURNDATASIZE DUP1 PUSH1 0x0 DUP2 EQ PUSH2 0x2822 JUMPI PUSH1 0x40 MLOAD SWAP2 POP PUSH1 0x1F NOT PUSH1 0x3F RETURNDATASIZE ADD AND DUP3 ADD PUSH1 0x40 MSTORE RETURNDATASIZE DUP3 MSTORE RETURNDATASIZE PUSH1 0x0 PUSH1 0x20 DUP5 ADD RETURNDATACOPY PUSH2 0x2827 JUMP JUMPDEST PUSH1 0x60 SWAP2 POP JUMPDEST POP SWAP2 POP SWAP2 POP DUP2 DUP1 ISZERO PUSH2 0x2851 JUMPI POP DUP1 MLOAD ISZERO DUP1 PUSH2 0x2851 JUMPI POP DUP1 DUP1 PUSH1 0x20 ADD SWAP1 MLOAD DUP2 ADD SWAP1 PUSH2 0x2851 SWAP2 SWAP1 PUSH2 0x2A85 JUMP JUMPDEST PUSH2 0x1B65 JUMPI PUSH1 0x40 MLOAD PUSH3 0x461BCD PUSH1 0xE5 SHL DUP2 MSTORE PUSH1 0x4 ADD PUSH2 0x3B9 SWAP1 PUSH2 0x2E51 JUMP JUMPDEST PUSH1 0x40 MLOAD DUP1 PUSH2 0x1E0 ADD PUSH1 0x40 MSTORE DUP1 PUSH1 0x0 PUSH1 0xFF AND DUP2 MSTORE PUSH1 0x20 ADD PUSH1 0x0 PUSH1 0x1 PUSH1 0x1 PUSH1 0xA0 SHL SUB AND DUP2 MSTORE PUSH1 0x20 ADD PUSH1 0x0 PUSH1 0x1 PUSH1 0x1 PUSH1 0xA0 SHL SUB AND DUP2 MSTORE PUSH1 0x20 ADD PUSH1 0x0 DUP2 MSTORE PUSH1 0x20 ADD PUSH1 0x0 DUP2 MSTORE PUSH1 0x20 ADD PUSH1 0x0 DUP2 MSTORE PUSH1 0x20 ADD PUSH1 0x0 DUP2 MSTORE PUSH1 0x20 ADD PUSH1 0x0 DUP2 MSTORE PUSH1 0x20 ADD PUSH1 0x0 DUP2 MSTORE PUSH1 0x20 ADD PUSH1 0x0 PUSH1 0x1 PUSH1 0x1 PUSH1 0xA0 SHL SUB AND DUP2 MSTORE PUSH1 0x20 ADD PUSH1 0x0 DUP2 MSTORE PUSH1 0x20 ADD PUSH1 0x0 DUP2 MSTORE PUSH1 0x20 ADD PUSH1 0x0 DUP2 MSTORE PUSH1 0x20 ADD PUSH1 0x0 PUSH1 0x1 PUSH1 0x1 PUSH1 0xA0 SHL SUB AND DUP2 MSTORE PUSH1 0x20 ADD PUSH1 0x0 ISZERO ISZERO DUP2 MSTORE POP SWAP1 JUMP JUMPDEST PUSH1 0x0 PUSH1 0x20 DUP3 DUP5 SUB SLT ISZERO PUSH2 0x291D JUMPI DUP1 DUP2 REVERT JUMPDEST DUP2 MLOAD PUSH2 0x2928 DUP2 PUSH2 0x3433 JUMP JUMPDEST SWAP4 SWAP3 POP POP POP JUMP JUMPDEST PUSH1 0x0 DUP1 PUSH1 0x0 DUP1 PUSH1 0x0 DUP1 PUSH1 0x0 DUP1 PUSH1 0x0 DUP1 PUSH2 0x140 DUP12 DUP14 SUB SLT ISZERO PUSH2 0x294E JUMPI DUP6 DUP7 REVERT JUMPDEST DUP11 CALLDATALOAD PUSH2 0x2959 DUP2 PUSH2 0x3433 JUMP JUMPDEST SWAP10 POP PUSH1 0x20 DUP12 ADD CALLDATALOAD PUSH2 0x2969 DUP2 PUSH2 0x3433 JUMP JUMPDEST SWAP9 POP PUSH1 0x40 DUP12 ADD CALLDATALOAD SWAP8 POP PUSH1 0x60 DUP12 ADD CALLDATALOAD SWAP7 POP PUSH1 0x80 DUP12 ADD CALLDATALOAD SWAP6 POP PUSH1 0xA0 DUP12 ADD CALLDATALOAD SWAP5 POP PUSH1 0xC0 DUP12 ADD CALLDATALOAD SWAP4 POP PUSH1 0xE0 DUP12 ADD CALLDATALOAD SWAP3 POP PUSH2 0x100 DUP12 ADD CALLDATALOAD SWAP2 POP PUSH2 0x120 DUP12 ADD CALLDATALOAD PUSH2 0x29AC DUP2 PUSH2 0x3433 JUMP JUMPDEST DUP1 SWAP2 POP POP SWAP3 SWAP6 SWAP9 SWAP12 SWAP2 SWAP5 SWAP8 SWAP11 POP SWAP3 SWAP6 SWAP9 POP JUMP JUMPDEST PUSH1 0x0 DUP1 PUSH1 0x0 DUP1 PUSH1 0x0 DUP1 PUSH1 0x0 DUP1 PUSH1 0x0 DUP1 PUSH1 0x0 PUSH2 0x160 DUP13 DUP15 SUB SLT ISZERO PUSH2 0x29E0 JUMPI DUP1 DUP2 REVERT JUMPDEST DUP12 CALLDATALOAD PUSH2 0x29EB DUP2 PUSH2 0x3433 JUMP JUMPDEST SWAP11 POP PUSH1 0x20 DUP13 ADD CALLDATALOAD PUSH2 0x29FB DUP2 PUSH2 0x3433 JUMP JUMPDEST SWAP10 POP PUSH1 0x40 DUP13 ADD CALLDATALOAD SWAP9 POP PUSH1 0x60 DUP13 ADD CALLDATALOAD SWAP8 POP PUSH1 0x80 DUP13 ADD CALLDATALOAD SWAP7 POP PUSH1 0xA0 DUP13 ADD CALLDATALOAD SWAP6 POP PUSH1 0xC0 DUP13 ADD CALLDATALOAD SWAP5 POP PUSH1 0xE0 DUP13 ADD CALLDATALOAD SWAP4 POP PUSH2 0x100 DUP13 ADD CALLDATALOAD SWAP3 POP PUSH2 0x120 DUP13 ADD CALLDATALOAD SWAP2 POP PUSH2 0x140 DUP13 ADD CALLDATALOAD PUSH2 0x2A46 DUP2 PUSH2 0x3433 JUMP JUMPDEST DUP1 SWAP2 POP POP SWAP3 SWAP6 SWAP9 SWAP12 POP SWAP3 SWAP6 SWAP9 SWAP12 SWAP1 SWAP4 SWAP7 SWAP10 POP JUMP JUMPDEST PUSH1 0x0 DUP1 PUSH1 0x40 DUP4 DUP6 SUB SLT ISZERO PUSH2 0x2A6C JUMPI DUP2 DUP3 REVERT JUMPDEST DUP3 CALLDATALOAD PUSH2 0x2A77 DUP2 PUSH2 0x3433 JUMP JUMPDEST SWAP5 PUSH1 0x20 SWAP4 SWAP1 SWAP4 ADD CALLDATALOAD SWAP4 POP POP POP JUMP JUMPDEST PUSH1 0x0 PUSH1 0x20 DUP3 DUP5 SUB SLT ISZERO PUSH2 0x2A96 JUMPI DUP1 DUP2 REVERT JUMPDEST DUP2 MLOAD DUP1 ISZERO ISZERO DUP2 EQ PUSH2 0x2928 JUMPI DUP2 DUP3 REVERT JUMPDEST PUSH1 0x0 DUP1 PUSH1 0x0 PUSH1 0x60 DUP5 DUP7 SUB SLT ISZERO PUSH2 0x2AB9 JUMPI DUP3 DUP4 REVERT JUMPDEST DUP4 MLOAD PUSH2 0x2AC4 DUP2 PUSH2 0x3448 JUMP JUMPDEST PUSH1 0x20 DUP6 ADD MLOAD SWAP1 SWAP4 POP PUSH2 0x2AD5 DUP2 PUSH2 0x3448 JUMP JUMPDEST PUSH1 0x40 DUP6 ADD MLOAD SWAP1 SWAP3 POP PUSH4 0xFFFFFFFF DUP2 AND DUP2 EQ PUSH2 0x2AEE JUMPI DUP2 DUP3 REVERT JUMPDEST DUP1 SWAP2 POP POP SWAP3 POP SWAP3 POP SWAP3 JUMP JUMPDEST PUSH1 0x0 PUSH1 0x20 DUP3 DUP5 SUB SLT ISZERO PUSH2 0x2B0A JUMPI DUP1 DUP2 REVERT JUMPDEST POP CALLDATALOAD SWAP2 SWAP1 POP JUMP JUMPDEST PUSH1 0x0 PUSH1 0x20 DUP3 DUP5 SUB SLT ISZERO PUSH2 0x2B22 JUMPI DUP1 DUP2 REVERT JUMPDEST POP MLOAD SWAP2 SWAP1 POP JUMP JUMPDEST PUSH1 0x0 DUP1 PUSH1 0x40 DUP4 DUP6 SUB SLT ISZERO PUSH2 0x2B3B JUMPI DUP2 DUP3 REVERT JUMPDEST POP POP DUP1 MLOAD PUSH1 0x20 SWAP1 SWAP2 ADD MLOAD SWAP1 SWAP3 SWAP1 SWAP2 POP JUMP JUMPDEST PUSH1 0x0 DUP1 PUSH1 0x0 PUSH1 0x60 DUP5 DUP7 SUB SLT ISZERO PUSH2 0x2B60 JUMPI DUP3 DUP4 REVERT JUMPDEST DUP4 MLOAD SWAP3 POP PUSH1 0x20 DUP5 ADD MLOAD SWAP2 POP PUSH1 0x40 DUP5 ADD MLOAD SWAP1 POP SWAP3 POP SWAP3 POP SWAP3 JUMP JUMPDEST PUSH1 0x1 PUSH1 0x1 PUSH1 0xA0 SHL SUB AND SWAP1 MSTORE JUMP JUMPDEST ISZERO ISZERO SWAP1 MSTORE JUMP JUMPDEST PUSH1 0xFF AND SWAP1 MSTORE JUMP JUMPDEST PUSH12 0xFFFFFFFFFFFFFFFFFFFFFFFF NOT PUSH1 0x60 SWAP4 DUP5 SHL DUP2 AND DUP3 MSTORE SWAP2 SWAP1 SWAP3 SHL AND PUSH1 0x14 DUP3 ADD MSTORE PUSH1 0x28 ADD SWAP1 JUMP JUMPDEST PUSH1 0x0 DUP3 MLOAD DUP2 JUMPDEST DUP2 DUP2 LT ISZERO PUSH2 0x2BDA JUMPI PUSH1 0x20 DUP2 DUP7 ADD DUP2 ADD MLOAD DUP6 DUP4 ADD MSTORE ADD PUSH2 0x2BC0 JUMP JUMPDEST DUP2 DUP2 GT ISZERO PUSH2 0x2BE8 JUMPI DUP3 DUP3 DUP6 ADD MSTORE JUMPDEST POP SWAP2 SWAP1 SWAP2 ADD SWAP3 SWAP2 POP POP JUMP JUMPDEST PUSH1 0x1 PUSH1 0x1 PUSH1 0xF8 SHL SUB NOT DUP2 MSTORE PUSH1 0x60 SWAP3 SWAP1 SWAP3 SHL PUSH12 0xFFFFFFFFFFFFFFFFFFFFFFFF NOT AND PUSH1 0x1 DUP4 ADD MSTORE PUSH1 0x15 DUP3 ADD MSTORE PUSH32 0xAE81BBC68F315FBBF7617EB881349AF83B1E95241F616966E1E0583ECD0793FE PUSH1 0x35 DUP3 ADD MSTORE PUSH1 0x55 ADD SWAP1 JUMP JUMPDEST PUSH1 0x1 PUSH1 0x1 PUSH1 0xA0 SHL SUB SWAP2 SWAP1 SWAP2 AND DUP2 MSTORE PUSH1 0x20 ADD SWAP1 JUMP JUMPDEST PUSH1 0x1 PUSH1 0x1 PUSH1 0xA0 SHL SUB SWAP3 DUP4 AND DUP2 MSTORE SWAP2 AND PUSH1 0x20 DUP3 ADD MSTORE PUSH1 0x40 ADD SWAP1 JUMP JUMPDEST PUSH1 0x1 PUSH1 0x1 PUSH1 0xA0 SHL SUB SWAP8 DUP9 AND DUP2 MSTORE SWAP6 DUP8 AND PUSH1 0x20 DUP8 ADD MSTORE PUSH1 0x40 DUP7 ADD SWAP5 SWAP1 SWAP5 MSTORE PUSH1 0x60 DUP6 ADD SWAP3 SWAP1 SWAP3 MSTORE PUSH1 0x80 DUP5 ADD MSTORE SWAP1 SWAP3 AND PUSH1 0xA0 DUP3 ADD MSTORE PUSH1 0xC0 DUP2 ADD SWAP2 SWAP1 SWAP2 MSTORE PUSH1 0xE0 ADD SWAP1 JUMP JUMPDEST PUSH1 0x1 PUSH1 0x1 PUSH1 0xA0 SHL SUB SWAP9 DUP10 AND DUP2 MSTORE SWAP7 DUP9 AND PUSH1 0x20 DUP9 ADD MSTORE PUSH1 0x40 DUP8 ADD SWAP6 SWAP1 SWAP6 MSTORE PUSH1 0x60 DUP7 ADD SWAP4 SWAP1 SWAP4 MSTORE PUSH1 0x80 DUP6 ADD SWAP2 SWAP1 SWAP2 MSTORE PUSH1 0xA0 DUP5 ADD MSTORE SWAP1 SWAP3 AND PUSH1 0xC0 DUP3 ADD MSTORE PUSH1 0xE0 DUP2 ADD SWAP2 SWAP1 SWAP2 MSTORE PUSH2 0x100 ADD SWAP1 JUMP JUMPDEST PUSH1 0x1 PUSH1 0x1 PUSH1 0xA0 SHL SUB SWAP3 SWAP1 SWAP3 AND DUP3 MSTORE PUSH1 0x20 DUP3 ADD MSTORE PUSH1 0x40 ADD SWAP1 JUMP JUMPDEST PUSH1 0x20 DUP1 DUP3 MSTORE PUSH1 0x15 SWAP1 DUP3 ADD MSTORE PUSH21 0x64732D6D6174682D7375622D756E646572666C6F77 PUSH1 0x58 SHL PUSH1 0x40 DUP3 ADD MSTORE PUSH1 0x60 ADD SWAP1 JUMP JUMPDEST PUSH1 0x20 DUP1 DUP3 MSTORE PUSH1 0x1F SWAP1 DUP3 ADD MSTORE PUSH32 0x5472616E7366657248656C7065723A205452414E534645525F4641494C454400 PUSH1 0x40 DUP3 ADD MSTORE PUSH1 0x60 ADD SWAP1 JUMP JUMPDEST PUSH1 0x20 DUP1 DUP3 MSTORE DUP2 DUP2 ADD MSTORE PUSH32 0x44587377617052656C617965723A20494E56414C49445F544F4C4552414E4345 PUSH1 0x40 DUP3 ADD MSTORE PUSH1 0x60 ADD SWAP1 JUMP JUMPDEST PUSH1 0x20 DUP1 DUP3 MSTORE PUSH1 0x14 SWAP1 DUP3 ADD MSTORE PUSH20 0x64732D6D6174682D6D756C2D6F766572666C6F77 PUSH1 0x60 SHL PUSH1 0x40 DUP3 ADD MSTORE PUSH1 0x60 ADD SWAP1 JUMP JUMPDEST PUSH1 0x20 DUP1 DUP3 MSTORE PUSH1 0x21 SWAP1 DUP3 ADD MSTORE PUSH32 0x44587377617052656C617965723A20494E56414C49445F57494E444F5754494D PUSH1 0x40 DUP3 ADD MSTORE PUSH1 0x45 PUSH1 0xF8 SHL PUSH1 0x60 DUP3 ADD MSTORE PUSH1 0x80 ADD SWAP1 JUMP JUMPDEST PUSH1 0x20 DUP1 DUP3 MSTORE PUSH1 0x14 SWAP1 DUP3 ADD MSTORE PUSH20 0x64732D6D6174682D6164642D6F766572666C6F77 PUSH1 0x60 SHL PUSH1 0x40 DUP3 ADD MSTORE PUSH1 0x60 ADD SWAP1 JUMP JUMPDEST PUSH1 0x20 DUP1 DUP3 MSTORE PUSH1 0x1E SWAP1 DUP3 ADD MSTORE PUSH32 0x5472616E7366657248656C7065723A20415050524F56455F4641494C45440000 PUSH1 0x40 DUP3 ADD MSTORE PUSH1 0x60 ADD SWAP1 JUMP JUMPDEST PUSH1 0x20 DUP1 DUP3 MSTORE PUSH1 0x22 SWAP1 DUP3 ADD MSTORE PUSH32 0x4458737761704C6962726172793A204944454E544943414C5F41444452455353 PUSH1 0x40 DUP3 ADD MSTORE PUSH2 0x4553 PUSH1 0xF0 SHL PUSH1 0x60 DUP3 ADD MSTORE PUSH1 0x80 ADD SWAP1 JUMP JUMPDEST PUSH1 0x20 DUP1 DUP3 MSTORE PUSH1 0x1B SWAP1 DUP3 ADD MSTORE PUSH32 0x44587377617052656C617965723A20494E56414C49445F504149520000000000 PUSH1 0x40 DUP3 ADD MSTORE PUSH1 0x60 ADD SWAP1 JUMP JUMPDEST PUSH1 0x20 DUP1 DUP3 MSTORE PUSH1 0x1F SWAP1 DUP3 ADD MSTORE PUSH32 0x44587377617052656C617965723A20494E53554646494349454E545F45544800 PUSH1 0x40 DUP3 ADD MSTORE PUSH1 0x60 ADD SWAP1 JUMP JUMPDEST PUSH1 0x20 DUP1 DUP3 MSTORE PUSH1 0x22 SWAP1 DUP3 ADD MSTORE PUSH32 0x44587377617052656C617965723A20494E56414C49445F544F4B454E5F4F5244 PUSH1 0x40 DUP3 ADD MSTORE PUSH2 0x22A9 PUSH1 0xF1 SHL PUSH1 0x60 DUP3 ADD MSTORE PUSH1 0x80 ADD SWAP1 JUMP JUMPDEST PUSH1 0x20 DUP1 DUP3 MSTORE PUSH1 0x1F SWAP1 DUP3 ADD MSTORE PUSH32 0x44587377617052656C617965723A2043414C4C45525F4E4F545F4F574E455200 PUSH1 0x40 DUP3 ADD MSTORE PUSH1 0x60 ADD SWAP1 JUMP JUMPDEST PUSH1 0x20 DUP1 DUP3 MSTORE DUP2 DUP2 ADD MSTORE PUSH32 0x44587377617052656C617965723A204F42534552564154494F4E5F454E444544 PUSH1 0x40 DUP3 ADD MSTORE PUSH1 0x60 ADD SWAP1 JUMP JUMPDEST PUSH1 0x20 DUP1 DUP3 MSTORE PUSH1 0x1D SWAP1 DUP3 ADD MSTORE PUSH32 0x44587377617052656C617965723A204F524445525F4558454355544544000000 PUSH1 0x40 DUP3 ADD MSTORE PUSH1 0x60 ADD SWAP1 JUMP JUMPDEST PUSH1 0x20 DUP1 DUP3 MSTORE PUSH1 0x1E SWAP1 DUP3 ADD MSTORE PUSH32 0x44587377617052656C617965723A20494E56414C49445F464143544F52590000 PUSH1 0x40 DUP3 ADD MSTORE PUSH1 0x60 ADD SWAP1 JUMP JUMPDEST PUSH1 0x20 DUP1 DUP3 MSTORE PUSH1 0x1C SWAP1 DUP3 ADD MSTORE PUSH32 0x44587377617052656C617965723A20494E56414C49445F4F5244455200000000 PUSH1 0x40 DUP3 ADD MSTORE PUSH1 0x60 ADD SWAP1 JUMP JUMPDEST PUSH1 0x20 DUP1 DUP3 MSTORE PUSH1 0x23 SWAP1 DUP3 ADD MSTORE PUSH32 0x44587377617052656C617965723A20494E56414C49445F544F4B454E5F414D4F PUSH1 0x40 DUP3 ADD MSTORE PUSH3 0x155395 PUSH1 0xEA SHL PUSH1 0x60 DUP3 ADD MSTORE PUSH1 0x80 ADD SWAP1 JUMP JUMPDEST PUSH1 0x20 DUP1 DUP3 MSTORE PUSH1 0x23 SWAP1 DUP3 ADD MSTORE PUSH32 0x44587377617052656C617965723A20494E53554646494349454E545F544F4B45 PUSH1 0x40 DUP3 ADD MSTORE PUSH3 0x4E5F41 PUSH1 0xE8 SHL PUSH1 0x60 DUP3 ADD MSTORE PUSH1 0x80 ADD SWAP1 JUMP JUMPDEST PUSH1 0x20 DUP1 DUP3 MSTORE PUSH1 0x27 SWAP1 DUP3 ADD MSTORE PUSH32 0x44587377617052656C617965723A20494E56414C49445F4C4951554944495459 PUSH1 0x40 DUP3 ADD MSTORE PUSH7 0x17D05353D55395 PUSH1 0xCA SHL PUSH1 0x60 DUP3 ADD MSTORE PUSH1 0x80 ADD SWAP1 JUMP JUMPDEST PUSH1 0x20 DUP1 DUP3 MSTORE PUSH1 0x23 SWAP1 DUP3 ADD MSTORE PUSH32 0x44587377617052656C617965723A20444541444C494E455F4E4F545F52454143 PUSH1 0x40 DUP3 ADD MSTORE PUSH3 0x121151 PUSH1 0xEA SHL PUSH1 0x60 DUP3 ADD MSTORE PUSH1 0x80 ADD SWAP1 JUMP JUMPDEST PUSH1 0x20 DUP1 DUP3 MSTORE PUSH1 0x1F SWAP1 DUP3 ADD MSTORE PUSH32 0x44587377617052656C617965723A20444541444C494E455F5245414348454400 PUSH1 0x40 DUP3 ADD MSTORE PUSH1 0x60 ADD SWAP1 JUMP JUMPDEST PUSH1 0x20 DUP1 DUP3 MSTORE PUSH1 0x22 SWAP1 DUP3 ADD MSTORE PUSH32 0x44587377617052656C617965723A204F42534552564154494F4E5F52554E4E49 PUSH1 0x40 DUP3 ADD MSTORE PUSH2 0x4E47 PUSH1 0xF0 SHL PUSH1 0x60 DUP3 ADD MSTORE PUSH1 0x80 ADD SWAP1 JUMP JUMPDEST PUSH1 0x20 DUP1 DUP3 MSTORE PUSH1 0x23 SWAP1 DUP3 ADD MSTORE PUSH32 0x44587377617052656C617965723A20494E53554646494349454E545F544F4B45 PUSH1 0x40 DUP3 ADD MSTORE PUSH3 0x272FA1 PUSH1 0xE9 SHL PUSH1 0x60 DUP3 ADD MSTORE PUSH1 0x80 ADD SWAP1 JUMP JUMPDEST PUSH1 0x20 DUP1 DUP3 MSTORE PUSH1 0x23 SWAP1 DUP3 ADD MSTORE PUSH32 0x5472616E7366657248656C7065723A204554485F5452414E534645525F464149 PUSH1 0x40 DUP3 ADD MSTORE PUSH3 0x131151 PUSH1 0xEA SHL PUSH1 0x60 DUP3 ADD MSTORE PUSH1 0x80 ADD SWAP1 JUMP JUMPDEST PUSH1 0x20 DUP1 DUP3 MSTORE PUSH1 0x1B SWAP1 DUP3 ADD MSTORE PUSH32 0x4458737761704C6962726172793A205A45524F5F414444524553530000000000 PUSH1 0x40 DUP3 ADD MSTORE PUSH1 0x60 ADD SWAP1 JUMP JUMPDEST PUSH1 0x20 DUP1 DUP3 MSTORE PUSH1 0x1D SWAP1 DUP3 ADD MSTORE PUSH32 0x44587377617052656C617965723A20524553455256455F544F5F4C4F57000000 PUSH1 0x40 DUP3 ADD MSTORE PUSH1 0x60 ADD SWAP1 JUMP JUMPDEST PUSH1 0x0 PUSH2 0x1E0 DUP3 ADD SWAP1 POP PUSH2 0x331C DUP3 DUP5 MLOAD PUSH2 0x2B8C JUMP JUMPDEST PUSH1 0x20 DUP4 ADD MLOAD PUSH2 0x332E PUSH1 0x20 DUP5 ADD DUP3 PUSH2 0x2B79 JUMP JUMPDEST POP PUSH1 0x40 DUP4 ADD MLOAD PUSH2 0x3341 PUSH1 0x40 DUP5 ADD DUP3 PUSH2 0x2B79 JUMP JUMPDEST POP PUSH1 0x60 DUP4 ADD MLOAD PUSH1 0x60 DUP4 ADD MSTORE PUSH1 0x80 DUP4 ADD MLOAD PUSH1 0x80 DUP4 ADD MSTORE PUSH1 0xA0 DUP4 ADD MLOAD PUSH1 0xA0 DUP4 ADD MSTORE PUSH1 0xC0 DUP4 ADD MLOAD PUSH1 0xC0 DUP4 ADD MSTORE PUSH1 0xE0 DUP4 ADD MLOAD PUSH1 0xE0 DUP4 ADD MSTORE PUSH2 0x100 DUP1 DUP5 ADD MLOAD DUP2 DUP5 ADD MSTORE POP PUSH2 0x120 DUP1 DUP5 ADD MLOAD PUSH2 0x3393 DUP3 DUP6 ADD DUP3 PUSH2 0x2B79 JUMP JUMPDEST POP POP PUSH2 0x140 DUP4 DUP2 ADD MLOAD SWAP1 DUP4 ADD MSTORE PUSH2 0x160 DUP1 DUP5 ADD MLOAD SWAP1 DUP4 ADD MSTORE PUSH2 0x180 DUP1 DUP5 ADD MLOAD SWAP1 DUP4 ADD MSTORE PUSH2 0x1A0 DUP1 DUP5 ADD MLOAD PUSH2 0x33C9 DUP3 DUP6 ADD DUP3 PUSH2 0x2B79 JUMP JUMPDEST POP POP PUSH2 0x1C0 DUP1 DUP5 ADD MLOAD PUSH2 0x33DE DUP3 DUP6 ADD DUP3 PUSH2 0x2B86 JUMP JUMPDEST POP POP SWAP3 SWAP2 POP POP JUMP JUMPDEST SWAP1 DUP2 MSTORE PUSH1 0x20 ADD SWAP1 JUMP JUMPDEST SWAP2 DUP3 MSTORE PUSH1 0x1 PUSH1 0x1 PUSH1 0xA0 SHL SUB AND PUSH1 0x20 DUP3 ADD MSTORE PUSH1 0x40 ADD SWAP1 JUMP JUMPDEST SWAP3 DUP4 MSTORE PUSH1 0x1 PUSH1 0x1 PUSH1 0xA0 SHL SUB SWAP2 SWAP1 SWAP2 AND PUSH1 0x20 DUP4 ADD MSTORE PUSH1 0x40 DUP3 ADD MSTORE PUSH1 0x60 ADD SWAP1 JUMP JUMPDEST PUSH1 0xFF SWAP2 SWAP1 SWAP2 AND DUP2 MSTORE PUSH1 0x20 ADD SWAP1 JUMP JUMPDEST PUSH1 0x1 PUSH1 0x1 PUSH1 0xA0 SHL SUB DUP2 AND DUP2 EQ PUSH2 0x1BDE JUMPI PUSH1 0x0 DUP1 REVERT JUMPDEST PUSH1 0x1 PUSH1 0x1 PUSH1 0x70 SHL SUB DUP2 AND DUP2 EQ PUSH2 0x1BDE JUMPI PUSH1 0x0 DUP1 REVERT INVALID LOG2 PUSH5 0x6970667358 0x22 SLT KECCAK256 SAR CALLVALUE KECCAK256 SWAP4 SWAP9 NOT 0xBA 0x5C 0x26 PUSH16 0xBDF4B553A6179AB8AF22BEC0D0CE1103 PUSH31 0xFC85DD124464736F6C63430006060033000000000000000000000000000000 "
    }
  },
  "interface": [
    {
      "inputs": [
        {
          "internalType": "address payable",
          "name": "_owner",
          "type": "address"
        },
        {
          "internalType": "address",
          "name": "_dxSwapFactory",
          "type": "address"
        },
        {
          "internalType": "address",
          "name": "_dxSwapRouter",
          "type": "address"
        },
        {
          "internalType": "address",
          "name": "_uniswapFactory",
          "type": "address"
        },
        {
          "internalType": "address",
          "name": "_uniswapRouter",
          "type": "address"
        },
        {
          "internalType": "address",
          "name": "_WETH",
          "type": "address"
        },
        {
          "internalType": "contract OracleCreator",
          "name": "_oracleCreater",
          "type": "address"
        }
      ],
      "stateMutability": "nonpayable",
      "type": "constructor"
    },
    {
      "anonymous": false,
      "inputs": [
        {
          "indexed": true,
          "internalType": "uint256",
          "name": "_orderIndex",
          "type": "uint256"
        }
      ],
      "name": "ExecutedOrder",
      "type": "event"
    },
    {
      "anonymous": false,
      "inputs": [
        {
          "indexed": true,
          "internalType": "uint256",
          "name": "_orderIndex",
          "type": "uint256"
        },
        {
          "indexed": true,
          "internalType": "uint8",
          "name": "_action",
          "type": "uint8"
        }
      ],
      "name": "NewOrder",
      "type": "event"
    },
    {
      "anonymous": false,
      "inputs": [
        {
          "indexed": true,
          "internalType": "uint256",
          "name": "_orderIndex",
          "type": "uint256"
        }
      ],
      "name": "WithdrawnExpiredOrder",
      "type": "event"
    },
    {
      "inputs": [],
      "name": "BOUNTY",
      "outputs": [
        {
          "internalType": "uint256",
          "name": "",
          "type": "uint256"
        }
      ],
      "stateMutability": "view",
      "type": "function"
    },
    {
      "inputs": [
        {
          "internalType": "address",
          "name": "token",
          "type": "address"
        },
        {
          "internalType": "uint256",
          "name": "amount",
          "type": "uint256"
        }
      ],
      "name": "ERC20Withdraw",
      "outputs": [],
      "stateMutability": "nonpayable",
      "type": "function"
    },
    {
      "inputs": [
        {
          "internalType": "uint256",
          "name": "amount",
          "type": "uint256"
        }
      ],
      "name": "ETHWithdraw",
      "outputs": [],
      "stateMutability": "nonpayable",
      "type": "function"
    },
    {
      "inputs": [],
      "name": "GAS_ORACLE_UPDATE",
      "outputs": [
        {
          "internalType": "uint256",
          "name": "",
          "type": "uint256"
        }
      ],
      "stateMutability": "view",
      "type": "function"
    },
    {
      "inputs": [
        {
          "internalType": "uint256",
          "name": "orderIndex",
          "type": "uint256"
        }
      ],
      "name": "GetOrderDetails",
      "outputs": [
        {
          "components": [
            {
              "internalType": "uint8",
              "name": "action",
              "type": "uint8"
            },
            {
              "internalType": "address",
              "name": "tokenA",
              "type": "address"
            },
            {
              "internalType": "address",
              "name": "tokenB",
              "type": "address"
            },
            {
              "internalType": "uint256",
              "name": "amountA",
              "type": "uint256"
            },
            {
              "internalType": "uint256",
              "name": "amountB",
              "type": "uint256"
            },
            {
              "internalType": "uint256",
              "name": "liquidity",
              "type": "uint256"
            },
            {
              "internalType": "uint256",
              "name": "priceTolerance",
              "type": "uint256"
            },
            {
              "internalType": "uint256",
              "name": "minReserveA",
              "type": "uint256"
            },
            {
              "internalType": "uint256",
              "name": "minReserveB",
              "type": "uint256"
            },
            {
              "internalType": "address",
              "name": "oraclePair",
              "type": "address"
            },
            {
              "internalType": "uint256",
              "name": "deadline",
              "type": "uint256"
            },
            {
              "internalType": "uint256",
              "name": "maxWindowTime",
              "type": "uint256"
            },
            {
              "internalType": "uint256",
              "name": "oracleId",
              "type": "uint256"
            },
            {
              "internalType": "address",
              "name": "factory",
              "type": "address"
            },
            {
              "internalType": "bool",
              "name": "executed",
              "type": "bool"
            }
          ],
          "internalType": "struct DXswapRelayer.Order",
          "name": "",
          "type": "tuple"
        }
      ],
      "stateMutability": "view",
      "type": "function"
    },
    {
      "inputs": [],
      "name": "PARTS_PER_MILLION",
      "outputs": [
        {
          "internalType": "uint256",
          "name": "",
          "type": "uint256"
        }
      ],
      "stateMutability": "view",
      "type": "function"
    },
    {
      "inputs": [],
      "name": "PROVISION",
      "outputs": [
        {
          "internalType": "uint8",
          "name": "",
          "type": "uint8"
        }
      ],
      "stateMutability": "view",
      "type": "function"
    },
    {
      "inputs": [],
      "name": "REMOVAL",
      "outputs": [
        {
          "internalType": "uint8",
          "name": "",
          "type": "uint8"
        }
      ],
      "stateMutability": "view",
      "type": "function"
    },
    {
      "inputs": [],
      "name": "WETH",
      "outputs": [
        {
          "internalType": "address",
          "name": "",
          "type": "address"
        }
      ],
      "stateMutability": "view",
      "type": "function"
    },
    {
      "inputs": [],
      "name": "dxSwapFactory",
      "outputs": [
        {
          "internalType": "address",
          "name": "",
          "type": "address"
        }
      ],
      "stateMutability": "view",
      "type": "function"
    },
    {
      "inputs": [],
      "name": "dxSwapRouter",
      "outputs": [
        {
          "internalType": "address",
          "name": "",
          "type": "address"
        }
      ],
      "stateMutability": "view",
      "type": "function"
    },
    {
      "inputs": [
        {
          "internalType": "uint256",
          "name": "orderIndex",
          "type": "uint256"
        }
      ],
      "name": "executeOrder",
      "outputs": [],
      "stateMutability": "nonpayable",
      "type": "function"
    },
    {
      "inputs": [],
      "name": "orderCount",
      "outputs": [
        {
          "internalType": "uint256",
          "name": "",
          "type": "uint256"
        }
      ],
      "stateMutability": "view",
      "type": "function"
    },
    {
      "inputs": [
        {
          "internalType": "address",
          "name": "tokenA",
          "type": "address"
        },
        {
          "internalType": "address",
          "name": "tokenB",
          "type": "address"
        },
        {
          "internalType": "uint256",
          "name": "amountA",
          "type": "uint256"
        },
        {
          "internalType": "uint256",
          "name": "amountB",
          "type": "uint256"
        },
        {
          "internalType": "uint256",
          "name": "priceTolerance",
          "type": "uint256"
        },
        {
          "internalType": "uint256",
          "name": "minReserveA",
          "type": "uint256"
        },
        {
          "internalType": "uint256",
          "name": "minReserveB",
          "type": "uint256"
        },
        {
          "internalType": "uint256",
          "name": "maxWindowTime",
          "type": "uint256"
        },
        {
          "internalType": "uint256",
          "name": "deadline",
          "type": "uint256"
        },
        {
          "internalType": "address",
          "name": "factory",
          "type": "address"
        }
      ],
      "name": "orderLiquidityProvision",
      "outputs": [
        {
          "internalType": "uint256",
          "name": "orderIndex",
          "type": "uint256"
        }
      ],
      "stateMutability": "payable",
      "type": "function"
    },
    {
      "inputs": [
        {
          "internalType": "address",
          "name": "tokenA",
          "type": "address"
        },
        {
          "internalType": "address",
          "name": "tokenB",
          "type": "address"
        },
        {
          "internalType": "uint256",
          "name": "liquidity",
          "type": "uint256"
        },
        {
          "internalType": "uint256",
          "name": "amountA",
          "type": "uint256"
        },
        {
          "internalType": "uint256",
          "name": "amountB",
          "type": "uint256"
        },
        {
          "internalType": "uint256",
          "name": "priceTolerance",
          "type": "uint256"
        },
        {
          "internalType": "uint256",
          "name": "minReserveA",
          "type": "uint256"
        },
        {
          "internalType": "uint256",
          "name": "minReserveB",
          "type": "uint256"
        },
        {
          "internalType": "uint256",
          "name": "maxWindowTime",
          "type": "uint256"
        },
        {
          "internalType": "uint256",
          "name": "deadline",
          "type": "uint256"
        },
        {
          "internalType": "address",
          "name": "factory",
          "type": "address"
        }
      ],
      "name": "orderLiquidityRemoval",
      "outputs": [
        {
          "internalType": "uint256",
          "name": "orderIndex",
          "type": "uint256"
        }
      ],
      "stateMutability": "nonpayable",
      "type": "function"
    },
    {
      "inputs": [],
      "name": "owner",
      "outputs": [
        {
          "internalType": "address payable",
          "name": "",
          "type": "address"
        }
      ],
      "stateMutability": "view",
      "type": "function"
    },
    {
      "inputs": [],
      "name": "uniswapFactory",
      "outputs": [
        {
          "internalType": "address",
          "name": "",
          "type": "address"
        }
      ],
      "stateMutability": "view",
      "type": "function"
    },
    {
      "inputs": [],
      "name": "uniswapRouter",
      "outputs": [
        {
          "internalType": "address",
          "name": "",
          "type": "address"
        }
      ],
      "stateMutability": "view",
      "type": "function"
    },
    {
      "inputs": [
        {
          "internalType": "uint256",
          "name": "orderIndex",
          "type": "uint256"
        }
      ],
      "name": "updateOracle",
      "outputs": [],
      "stateMutability": "nonpayable",
      "type": "function"
    },
    {
      "inputs": [
        {
          "internalType": "uint256",
          "name": "orderIndex",
          "type": "uint256"
        }
      ],
      "name": "withdrawExpiredOrder",
      "outputs": [],
      "stateMutability": "nonpayable",
      "type": "function"
    },
    {
      "stateMutability": "payable",
      "type": "receive"
    }
  ]
}